:020000041000EA
:1000000000B5324B212058609868022188439860DF
:10001000D860186158612E4B002199600221596106
:100020000121F02299502B49196001219960352056
:1000300000F044F80222904214D00621196600F024
:1000400034F8196E01211966002018661A6600F04E
:100050002CF8196E196E196E052000F02FF8012189
:100060000842F9D1002199601B49196000215960AB
:100070001A491B48016001219960EB211966A021F2
:10008000196600F012F800219960164914480160C1
:100090000121996001BC002800D000471248134993
:1000A000086003C880F30888084703B5996A0420EC
:1000B0000142FBD001200142F8D103BD02B5186610
:1000C0001866FFF7F2FF186E186E02BD00000240BE
:1000D000000000180000070000035F00212200005C
:1000E000F4000018222000A00001001008ED00E03C
:1000F00000000000000000000000000074B24E7A12
:1001000000200420F7010010C3010010C5010010F9
:10011000C1010010C1010010C1010010C101001097
:10012000C1010010C1010010C1010010C701001081
:10013000C1010010C1010010C9010010CB01001065
:10014000CD010010CD010010CD010010CD01001037
:10015000CD010010CD010010CD010010CD01001027
:10016000CD010010CD010010CD010010CD01001017
:10017000CD010010CD010010CD010010CD01001007
:10018000CD010010CD010010CD010010CD010010F7
:10019000CD010010CD010010CD010010CD010010E7
:1001A000CD010010CD010010CD010010CD010010D7
:1001B000CD010010CD010010CD010010CD010010C7
:1001C00000BE00BE00BE00BE00BE00BEEFF3058054
:1001D000103800BEF2EB8871B48A0010E08A00107B
:1001E0003402001090A31AE700201F49086006C8D7
:1001F00081F3088810471D48006800282FD10DA4FE
:100200000ECC002902D000F012F8F9E71849194A7B
:10021000002000E001C19142FCD1174988471749ED
:1002200088471749884700BEFDE701C901C29A42C5
:10023000FBD37047E08A0010C0000020C80C0020EB
:10024000E89600100000042000000420E89600104A
:10025000001004200010042000000000704709482E
:1002600003F0A0FB0047000008ED00E0000000D014
:10027000C80C0020BC1B00203527001061050010B1
:10028000F12600105756000006005250ABB36053E1
:100290000084001006005250861C030210840010D7
:1002A000060052505422A29D18840010050052509E
:1002B000DE65F468E8960010F8B5C0460448054BC2
:1002C00010B5834203D0044B002B00D0984710BDDB
:1002D000C80C0020C80C0020000000000648074998
:1002E000091A8B10C90FC91810B5491003D0044B57
:1002F000002B00D0984710BDC80C0020C80C00206F
:100300000000000010B5074C2378002B09D1FFF73F
:10031000D5FF054B002B02D0044800E000BF0123AD
:10032000237010BDD00D00200000000008750010E3
:10033000054B10B5002B03D00449054800E000BF71
:10034000FFF7CCFF10BDC04600000000D40D002018
:100350000875001070B58AB03D4A13680133136008
:100360003C4AA4230221D1501422002105A804F004
:10037000B9FA0023002100E001337F2B0EDC364A5E
:10038000D25C002AF8D0354AD25C002AF4D1042984
:10039000F2DC880005AA83500131EDE7059B002BB4
:1003A0001BD100232CE018012D4A121852686868EE
:1003B000824202DA1A012A4DAD180133042B10DCF7
:1003C0001A012748125C002AEDD11801244A12189C
:1003D000A0006E4682510134EFE700230024204D37
:1003E000ECE7002308E098006A46825805AC005903
:1003F00050600120107001339942F4DCD1E70133E1
:10040000042B0CDC1901164A5218526812498A5CF6
:10041000002AF4D11A01124900205054EFE7114B81
:10042000186804F095F9041C002104F088F9011CF7
:10043000201C04F069F904F0ADF983B20A4A10688F
:1004400043401B041B0C094A13600AB070BDC04630
:10045000801100200000054040170020C017002038
:100460009C180020B80B00202000054020100540FB
:10047000002303704360023303720023C36070479C
:1004800082B0324B9B6910210A001A401942F8D100
:100490006B46D91D08E02D4B9B69DB06FBD42B4B2B
:1004A0001B680B7001320131002AF4D06B46DA79F7
:1004B000274B1B68012B11D0022B15D0002B05D028
:1004C000234B1B68032B15D002B07047002AF7D0CE
:1004D00020490A7001331E4A1360F1E71D494A7032
:1004E00001331B4A1360EBE71A498A700133184A3B
:1004F0001360E5E7164B00221A60164A13780F21A5
:100500008B435278802B07D0902B11D0114B0022B7
:100510001A705A709A70D7E7D0231B0680210902FF
:1005200099610D4B985C0D49885400219954EDE771
:10053000D0231B06802109025961074B985C0749AB
:100540008854044989789954E0E7C0460040034044
:100550003C1700203817002040170020C01700204B
:10056000F0B585B004F028FB03AB02AA01A92B4823
:1005700000F0A4F8002803D12849294802F056F9D0
:10058000039A0299019800F05DF80421022000F01E
:10059000E7F8244D0227A423EF50234B1F60234983
:1005A000042000F02FFA0121042000F001FA0024B9
:1005B0006C61EC612C62C8236B621833AB6101265D
:1005C0006E611B4B1B689BB21A4A13601A4D1B4984
:1005D000280001F029FE3900300000F0C1F8310098
:1005E000280001F005FE192000F0D2F8D0252D06D4
:1005F00080239B046B626B610F2000F0C9F880239D
:100600001B026B6205E023010D48C018FFF730FFA5
:100610000134042CF7DDFFF733FFFCE760E4010051
:100620000875001000000540A82005405503001083
:10063000200005402010054000400340127A0000D1
:100640009C180020F0B583B004000D00160000F0E7
:10065000ABF8002801D003B0F0BD154F00973B0068
:1006600001220121053001F01FFE00962B0022001F
:100670000121104801F022FF31006943200003F0FE
:10068000E5F904000C4B009300220221042001F044
:100690000BFE0094230000220121052001F004FE3E
:1006A00000973B0002220021062001F0FDFDD2E769
:1006B000006CDC0200800240001BB700F0B5DE4693
:1006C00057464E464546E0B583B080468B46924637
:1006D0000193A0235B0099462AE0013C002C1ED028
:1006E00025007D432900300003F0B0F94045F4D1E6
:1006F0002900300003F0AAF90029EED1144B4A4634
:1007000053435A46136053461F60019B1C600120EF
:1007100003B03CBC90469946A246AB46F0BD013FB3
:10072000002F01D03C00D9E701235B429C46E14405
:100730004B460F2B09D9074E4B465E43064BF2182A
:10074000064B9A42F0D80727EAE70020E0E7C046C8
:10075000001BB700E02E0000508EF4FF50F80C0094
:1007600010B58300084A944663441C6840226240E6
:10077000C02414408022520113431C60C000034B6C
:100780009C466044416010BD04C0014000400140EF
:1007900010B501238340D022120693629361052194
:1007A000FFF7DEFF10BD0000034B1B68022018405E
:1007B000431E9841C0B2704700C00640EFF310805E
:1007C00072B6034B1B68002BFBD0BFF35F8F7047E3
:1007D0002C0100D0BFF35F8F024B00221A6080F320
:1007E000108870472C0100D0F8B506000C001500E9
:1007F000FFF7E4FFE308F718F15C0722224001232A
:1008000093400B4205D1DBB20B433B70FFF7E2FF95
:10081000F8BD2100280002F009F8F0B583B0060009
:10082000019114001F00FFF7C9FFBC420ED8E30876
:10083000F518F35C0721214001228A401A4201D0B9
:100840000134F2E7D2B21A432A7001E00124644273
:10085000FFF7C0FF002C02DB200003B0F0BD019BBE
:10086000002BF9D0089801F0E1FF000000231F2BB6
:1008700008D8054A9A189200BFF35F8F00211160D3
:100880000133F4E77047C04640000034054A107851
:10089000431CDBB21370172B02D9130010221A70FD
:1008A0007047C046BC0B002000B583B00100044B6C
:1008B00000931F2318220348FFF7AFFF03B000BDCA
:1008C0003C75001094120020074B9B68103080008C
:1008D0001950BFF35F8FBFF35F8F044B0021196086
:1008E00082F310887047C04600ED00E0240100D07C
:1008F00010B5091A0B1F0A4A94466144094A9142ED
:1009000008D8DA0706D45B105B055B0D0648184370
:1009100080B210BD054B064AA321064801F0ECFE4B
:10092000FC070000FE0F000000E0FFFF58750010FC
:100930009C7700108875001010B5091A04394C080E
:10094000090B08D14905490D064A11430180064BA0
:100950002343438010BD054B054AAB21054801F0F8
:10096000CBFEC04600F0FFFF00F8FFFFC875001087
:10097000A87700108875001001238340034A10688F
:100980001840431E9841C0B27047C04600E100E0E5
:10099000002904D0034B1860034B18607047034BC9
:1009A0001860FBE780E200E000E100E080E100E0A9
:1009B00010B5012383401800FFF7EAFF10BD0000C7
:1009C00001238340014A13607047C04600E200E003
:1009D000024B9B6810308000C058704700ED00E06B
:1009E00010B5FFF7F5FF002805D0054BC01A2F28DA
:1009F00003D8012010BD0020FCE70020FAE7C04624
:100A0000C00B002070B504000D00EFF3108672B625
:100A10000C4B1B68002BFBD0BFF35F8F2000FFF750
:100A2000D7FF094B984201D0A84205D132002900D6
:100A30002000FFF749FF70BD044B054A8621054899
:100A400001F05AFE240100D0CD010010D87500102D
:100A50008077001088750010F0B5DE4657464E4688
:100A60004546E0B589B0814601911500EFF3108A43
:100A700072B6744B1B68002BFBD0BFF35F8F724BB9
:100A80000027DF57002F40DB7C00E419A4006F48EB
:100A900024180622A2566C4B1A706D4B9A684B466E
:100AA00010339B00D35898461E001B1A2F2B38D9A1
:100AB000684B98452FD105AE674B33807B009B4632
:100AC000D8198000614B9846404402306349FFF7D3
:100AD0000FFF7080624BB380FF23B371F571019BF0
:100AE000B3605F44BF0047440ECE0EC701231C43D2
:100AF000A046524641464846FFF7E6FE09B03CBCD8
:100B000090469946A246AB46F0BD564B564AD72171
:100B1000564801F0F1FD564B534ADE21534801F08F
:100B2000EBFDC04340440C2102F090FF002912D19C
:100B300001239E43B34633000026DA79AA4211D935
:100B40000621595600290CDB4A00521892001E005B
:100B50003E4B9B18F1E7474B434AEA21434801F0DB
:100B6000CBFD1E00002E3AD005AB434A1A80813AD5
:100B70005A800623F3560293002B17DA3F4805AB41
:100B80009B469880029A9A71DD71019A0792301DF6
:100B90002100FFF7ADFEB080B7717B00DB199B0031
:100BA0002A4FFF185B4607CB07C7A2E77800C0199A
:100BB0008000264BC0180430321DB388D90A1C2986
:100BC00007D159054915023149005118FFF790FE28
:100BD000D5E72B4B2B4AB121244801F08DFD05AE02
:100BE0001D4B33807B000293D8198000174A904632
:100BF000020042440392901C1849FFF779FE70806E
:100C0000039A101D5946FFF773FEB0801E4B5A46DB
:100C10004146521A524153431B0DB371F571019A6B
:100C2000B260029B9C466744BF0047440ECE0EC78D
:100C3000114B5A461380813B538001231C43A0462D
:100C400057E7C046240100D0F0180020C00B002058
:100C500000ED00E0CD01001000A1FFFFF00B00202F
:100C600001BDFFFF10760010D077001088750010CE
:100C700038760010607600100148000001BD0000C9
:100C8000D4760010C0770010AAAA0000F0B5CE46B6
:100C9000474680B583B006000D00EFF3108872B6AA
:100CA000564B1B68002BFBD0BFF35F8F544B9A68E9
:100CB00034001034A300D758524B9F4207D0AF42A4
:100CC00000D198E00197504BFB1A2F2B09D94246CF
:100CD00039003000FFF7F8FD03B00CBC9046994690
:100CE000F0BD3000FFF748FE814600213000FFF7DD
:100CF0005FFEBFF35F8FEFF30581002901D08C42C7
:100D000011D10123019C9C430022A368AB4212D065
:100D10000622A256002A0DDB53009B189B002200DE
:100D2000394CE418F1E73621384B394AFF3139485C
:100D300001F0E2FC2200AB4256D106256557002D9A
:100D400038DB6B005B199A002F4B9B189A68A260E6
:100D5000DA79E27106229A56A2719B795BB2002B76
:100D60000FDA2D48A0806B005B199B00264AD31830
:100D70002A4A11789971157049463000FFF718FE1C
:100D8000A5E7201D6B005B199B001F4A9B181A1DCD
:100D90009B88D90A1C2907D15905491502314900F8
:100DA0005118FFF7A5FDDDE71D4B1E4AB12119487B
:100DB00001F0A2FC002912D1002A0ED0FF2393716A
:100DC000194B9380154A1378A371184B0E49641A76
:100DD000644163431B0D1370CEE70A4FF2E7201DF9
:100DE0001349FFF7A9FDC7E76A21124B084AFF31F3
:100DF000084801F081FC034F69E7C046240100D098
:100E000000ED00E0CD010010C00B0020EC760010DA
:100E1000E87700108875001001BD0000F018002070
:100E2000D4760010C077001001BDFFFFAAAA000011
:100E3000FA0B002020770010F8B5012101432E4B5A
:100E4000CB1A2F2B28D8EFF30583002B2BD0EFF3F1
:100E5000108572B6294A1268002AFBD0BFF35F8F53
:100E6000274A0400244EA41B64416243120D54B26D
:100E7000244A92689B00D2588A421BD00022032A3F
:100E800032D853009B189B001B49CB189B795BB24F
:100E9000A3421FD00132F2E7C7211B4B1B4A490076
:100EA0001B4801F029FC92211A4B184AFF311848BF
:100EB00001F022FC134A92681749D150174B1A7857
:100EC00082711C70BFF35F8F0C4B00221A6085F398
:100ED0001088F8BD0E005300991889007118FF277B
:100EE0008F710F4A8A80E9E7D1210E4B074A4900EA
:100EF000074801F001FCC046C00B0020240100D0CF
:100F0000AAAA000000ED00E028770010FC7700108E
:100F10008875001050770010CD010010F0180020E7
:100F200001BDFFFF5C7700100022044B02E0044982
:100F300002C30132072AFAD97047C04600E400E034
:100F40008080808000B583B00100064B00930523AC
:100F500000220548FFF761FC002801DB1F23181A57
:100F600003B000BD64770010F5180020024B9C46CA
:100F700061448900016070474000003410B50400EE
:100F8000FFF784FC01002000FFF7F0FFFF2323712F
:100F9000BFF35F8F10BD10B50400FFF777FC0100B1
:100FA0002000FFF7E3FFFF23237100236371BFF3EA
:100FB0005F8F10BD034B9C46614489000160BFF305
:100FC0005F8F70474000003410B504000120FFF728
:100FD0006BFC01002000FFF7EDFF10BD70B50500B0
:100FE0000C00080000F04AFE0949200000F08AFDCC
:100FF000FFF74CFC074B9C466044800068602C75F2
:10100000D0231B061B786B75A400034BE55070BD05
:1010100021130010400000344C1800200A4B1A68BD
:10102000EFF3108172B61368002BFCD0BFF35F8F13
:10103000054B1B68BFF35F8F00221A6081F3108895
:1010400040BF0020002170476818002010B500291B
:1010500022D003681B7B99421ED8174B9C466144E3
:10106000090183689C4661440C684968002A19D0CC
:1010700003681B7B9A4215D883680F4884466244F4
:1010800012019A1810685368020001208B4201D89F
:101090000ED00020C0B210BD084B094A3C210948BF
:1010A00001F02AFB054B064A3C21064801F024FBCF
:1010B000A242EFD8EDE7C046FFFFFF0F9479001082
:1010C000B47B00105C79001010B500291ED0037BA2
:1010D00099421BD84B005B18033B0468A446634449
:1010E000002919D0002A1DD0914221D0002A25D0F4
:1010F000047BA24222D804685000801803382018CC
:101100008170197800291FD11A7010BD104B114A37
:101110006821114801F0F0FA104B114A6F310E4866
:1011200001F0EAFA0F4B0E4A70210B4801F0E4FA85
:101130000D4B0B4A7121084801F0DEFA044B054AB9
:101140006821054801F0D8FA41701A70DDE7C04601
:10115000B8790010747B0010D4790010207A001048
:10116000807B00102C7A0010387A001070B50600D1
:101170000D001400002914D0002A14D08068736870
:101180009847002806D0220029003000FFF79CFF76
:10119000280007E02A0021003000FFF795FF20001B
:1011A00000E0100070BD0800FCE70000F0B583B05F
:1011B0000500009201930AAB1C780BAB1F78002C42
:1011C00026D003685A7B944207D10123002B19D102
:1011D000002C3BD1200003B0F0BD002C0CD01A7BBA
:1011E000944209D81A6863001B19033BD3189B78F3
:1011F000002BEBD00123E9E73E4B3F4A68213F48F3
:1012000001F07AFA3E4B3F4A67213F4801F074FAF9
:1012100003689C7B002CDBD012D01A7B94420FD841
:1012200062001219033A19688C4662445178997326
:10123000002900D1D9730023937053701370C7E74E
:101240002C4B2D4A68212D4801F056FA002C3AD03B
:101250002B681B7B9C4236D82C4BE3181B01AA68D9
:1012600094466344009A1A60019A5A60089A9A60F8
:10127000099ADA602E68002C2BD030D0337B9C4248
:101280002DD863001B19033B326894466344002247
:101290009A705A701A70717B22003000FFF766FF57
:1012A0007073844200D095E7287D009A019B00F07E
:1012B00071FC061E01D0002F17D00C9B002B00D113
:1012C00088E71E7086E7124B124A3C210E4801F057
:1012D00013FA114B114AA521084801F00DFA054BEC
:1012E000054A6821054801F007FA2868210000F046
:1012F00089FEE2E7B8790010747B0010D479001001
:10130000507A0010EC7B00105C790010FFFFFF0F9B
:1013100094790010B47B001058790010947B001071
:10132000F0B5DE4657464E464546E0B58BB00990CF
:10133000002308938200B54BD658370052E0B44BD7
:10134000B44A3F21B44801F0D7F9B44BB44A3C2128
:10135000B44801F0D1F9002901D1002869D1002158
:10136000404600F045FEA04219D12A686B680692FB
:101370000793AB689846EB689A464346002B14D017
:10138000002C18D03B681B7B9C4214D8631EFA6863
:10139000D35C08931B0218433861002015E0A24B70
:1013A000A24A8E219F4801F0A7F9A14B9F4A9221A2
:1013B0009C4801F0A1F9994B9E4A4121994801F0BE
:1013C0009BF900239A46984600207B68BFF35F8F05
:1013D00000221A6086F310884346002B32D1002881
:1013E00000D10CE100F04CFB02000B1EA7DB00203B
:1013F0000021069007917868EFF3108672B60168B5
:101400000029FCD0BFF35F8F396888464C7B002CE5
:10141000D7D09AD0097B8C4297D8874965182D017F
:10142000B9688C46654428686968801A9941002922
:1014300091DD2A686B68099800F0ACFB00239A469E
:101440009846C2E7089B1B02234399465146180061
:10145000C04705000E007A68EFF3108B72B6136870
:1014600059424B41D9B2002BF9D1BFF35F8F002E07
:101470001EDB002E46DD3B69002B47D04B456DD16E
:1014800000F0FEFA02000B1E6EDB52197341002BB6
:1014900070DB002B72DB0021049101310391029477
:1014A00051460191414600913800FFF77FFE4CE024
:1014B0003B69002BDDD04B4514D1069A079B521B8C
:1014C000B341002B14DB002B16DB0021049101310A
:1014D0000391029451460191414600913800FFF773
:1014E00065FE32E0554B514AA1214E4801F004F906
:1014F00001225242524BE6E7454B464A3F214648BD
:1015000001F0FAF8002E01D1002DB4D13B68002C77
:1015100050D05A7B944237D1012100294AD1DA7B3D
:10152000002A4DD19A7B002A03D1DA7B002A5AD1B6
:101530009C73DC73002C5CD03B681B7B9C4258D8AE
:10154000FA68013C135D0133135500233B617A684F
:10155000BFF35F8F13608BF3108843E7374B334A39
:10156000A421304801F0C8F8294B2A4A3F212A48D3
:1015700001F0C2F801225242314B8AE7244B254A3E
:101580003F21254801F0B8F8002C0DD01A7B944279
:101590000AD862001219033A1868844662449278A5
:1015A000002ABAD00121B8E7264B274A68212748EC
:1015B00001F0A2F8264B274AF621244801F09CF8B6
:1015C000002A0AD0197B8A4207D851008A18033AA8
:1015D00019688C4662445470A4E71A4B1A4A682171
:1015E0001A4801F089F81C4B1A4AFB21174801F0F0
:1015F00083F80A4B0F4A41210A4801F07DF80BB0ED
:101600003CBC90469946A246AB46F0BD4C18002023
:10161000707800105C7B00108C78001094790010BA
:10162000B47B00105C790010787A0010047C001004
:10163000907A0010C07B0010FFFFFF0F9C7A001013
:10164000FFFFFF7FB8790010747B0010D479001081
:10165000D87A0010A47B0010FC7A001010B50C4B57
:101660005B68002B04D00A210A48FFF77FFC10BDFD
:10167000074C2300084A1021206800F0C9FB032012
:1016800000F0F2F903212000FFF7A8FCEBE7C046C9
:10169000080C0020681800204D10001010B5064BF3
:1016A0005B68002B01D0044810BD044B044A5E2146
:1016B000044801F021F8C046080C0020107B0010FF
:1016C000D47B00105C790010F0B5DE4657464E46DC
:1016D0004546E0B58BB0804616001F00149B9A4625
:1016E000159B994616AB1B789B461F2302AA94466E
:1016F000634400221A702CE0002809D04246126888
:10170000127B904204D8421E4146C9688A5C42E07E
:10171000404B414A4121414800F0EEFF0798002B21
:101720006FD05B46002B6CD04946D04704000D00BB
:1017300003000B4300D16BE0002940DB00F0A0F96F
:1017400006000F1E4BDB36196F41002F4DDB002FBB
:101750004FDB43465A68EFF3108472B61368594260
:101760004B41D9B20791002BF8D1BFF35F8F1F33E4
:1017700002AA9446634404930023039302934B46C6
:1017800001935346009332003B004046FFF70EFDA5
:10179000031EB1D1020041464968BFF35F8F0025A7
:1017A0000D6084F31088002B29D01F2302A98C46DA
:1017B00063441B78002BB1D112021043AFE7361BF4
:1017C000AF41002F07DB002FC3DA154B154A3F212D
:1017D000154800F091FF01267642144FF3E7104BB5
:1017E000104A3F21104800F087FF012676420F4F34
:1017F000ADE70B4B0B4A3F210B4800F07DFF01206A
:1018000040420BB03CBC90469946A246AB46F0BD68
:101810000798F6E794790010C07B00105C790010FF
:10182000707800105C7B00108C780010FFFFFF7F49
:10183000F8B50400002900D162E04268EFF310859A
:1018400072B6136858424341D8B2002BF9D1BFF3A6
:101850005F8FCBB22268567BB3421BD10120002898
:1018600048D0206988422BD0090AC9B2002B2ED05B
:101870002068007B83422AD8581EE668305C884284
:101880002BD000206368BFF35F8F00221A6085F3BE
:101890001088F8BD002B0DD0167BB3420AD85E002D
:1018A000F618033E1768BC466644B678002ED6D0BC
:1018B0000120D4E7134B144A6821144800F01CFFA0
:1018C0002C21134B134AFF31134800F015FF134B23
:1018D000134A4121104800F00FFF1900100000F0DA
:1018E00091FB0028CED199210E4B0A4A49000A48A3
:1018F00000F002FF23698B42C4D100232361C1E7BA
:101900000020C6E7B8790010747B0010D47900106D
:10191000347B0010207C00105C790010947900105A
:10192000C07B0010587B0010407D704770B584B0BC
:1019300005000C00EFF30583002B12D0244B5B6AEB
:10194000994209D8224A926A824208D2994201D029
:10195000012002E0002000E0002004B070BD012062
:10196000FBE7FFF79BFE002302930193194B0093C3
:101970002A002300FFF7A8FE061E11DC144B5B6A49
:101980009C4209D8124A926AAA4207D29C4201D0CC
:101990000120E2E70020E0E70020DEE70120DCE7AD
:1019A00020BFFFF77BFE3100FFF742FF084B5B6A69
:1019B0009C4209D8064A926AAA4207D29C4201D0A8
:1019C0000120CAE70020C8E70020C6E70120C4E7DD
:1019D000004005401D10001070B5EFF30580103871
:1019E000EFF3108472B61A4B1B68002BFBD0BFF3C9
:1019F0005F8F01221300834016494B6316490B6029
:101A0000164909780D00C5402A4214D0114A556A7A
:101A10008200134E9259954206D38200114D5259BD
:101A200099430E4B197007E00A4A031D9B00995811
:101A30009950002200E00022BFF35F8F044B002189
:101A4000196084F31088002A00D0904770BDC0460A
:101A5000280100D0004005403C700540F4180020EB
:101A6000741800207011002010B50100024A0348CC
:101A7000FEF7BAFE10BDC046387C0010EF180020FB
:101A8000044B5B6A034A906A1900536A9942F9D180
:101A90007047C04600400540074B5B6A8B4204D24A
:101AA000054B5B6AFAE7044B5B6A8B4203D1024B3E
:101AB0009B6A8342F7D370470040054070B504002D
:101AC0000D00FFF7DDFF02000B0020002900801849
:101AD00059418B4202D804D1824202D901204042AE
:101AE000C117002902DBFFF7D7FF70BD024B034A85
:101AF0003F21034800F000FE70780010C47C001005
:101B00008C78001070B504000D00EFF3108672B6EB
:101B10001B4B1B68002BFBD0BFF35F8F002D1CD02D
:101B20002000FEF755FF174B83420BD01900200011
:101B3000FEF768FF01212000FEF73AFF0123A340D2
:101B4000114A1360A400114BE550BFF35F8F0C4B9B
:101B500000221A6086F3108870BDA2000B4B002192
:101B6000D1500122A2400A490B7893430B700549DA
:101B70002000FFF78BF800212000FEF719FFE4E7B3
:101B8000280100D0D91900103860054070110020DC
:101B9000F4180020F0B5DE4600B584B0040015004E
:101BA00001921E000293FFF76BFF03958E4202D84D
:101BB0004ED185424CD9EFF3108B72B6274B1B6880
:101BC000002BFBD0BFF35F8F254A17780125A54076
:101BD000EBB23B431370234B5D63221D92000199CE
:101BE000D150A2002049029850501B6A2B4212D1BA
:101BF0001C4B1B6C2B4208D00020BFF35F8F174B90
:101C000000221A608BF3108823E0184B184AC52174
:101C1000184800F071FDFFF733FF8E4214D802D14F
:101C2000039B834210D80E4B1B78BB420ED00D4B4A
:101C30001D625D631F2004400123A3400E4A136010
:101C4000074B1F701E38D8E70020D6E70120D4E7E5
:101C5000012004B004BC9346F0BDC046280100D06A
:101C6000F418002000400540741800205C7C00102F
:101C7000DC7C0010807C001080E200E010B5EFF307
:101C8000108472B60A4B1B68002BFBD0BFF35F8F2A
:101C900001238340074A136207490A789A430A706E
:101CA000BFF35F8F024B00221A6084F3108810BDCF
:101CB000280100D000400540F418002010B500298C
:101CC0001ED0037B99421BD84B005B18033B046872
:101CD000A4466344002919D0002A1DD0914221D086
:101CE000002A25D0047BA24222D804685000801824
:101CF000033820188170197800291FD11A7010BD7F
:101D0000104B114A6821114800F0F6FC104B114AA3
:101D10006F310E4800F0F0FC0F4B0E4A70210B485B
:101D200000F0EAFC0D4B0B4A7121084800F0E4FC7E
:101D3000044B054A6821054800F0DEFC41701A702A
:101D4000DDE7C046B8790010A87D0010D4790010F6
:101D5000207A0010B47D00102C7A0010387A001020
:101D600070B506000D001400002914D0002A14D00C
:101D7000806873689847002806D022002900300048
:101D8000FFF79CFF280007E02A0021003000FFF742
:101D900095FF200000E0100070BD0800FCE7000087
:101DA00010B50023437301338373037BC373012393
:101DB000027B9A4214D9002B0CD0027B934209D8A3
:101DC0005A00D218033A01688C4662440133DBB2F0
:101DD0005370EDE70B4B0C4A68210C4800F08CFC6B
:101DE000002A09D0924207D8016853009A18033A92
:101DF0008A180023537010BD024B034A6821034820
:101E000000F07AFCB8790010A87D0010D479001099
:101E100010B5017342608360FFF7C2FF10BD000080
:101E200070B50400081E00D170BD002934D0237B9A
:101E3000994231D84B005B18033B226894466344B7
:101E40005A78002AF0D02DD0237B9A422AD853000A
:101E50009B18033B21688C4663445D7800215970D0
:101E6000002825D0237B984222D843001B18033B2F
:101E700021688C4663440021597001002000FFF75F
:101E80006FFF060029002000FFF7CAFF02003100A3
:101E90002000FFF765FFC7E7084B094A682109489A
:101EA00000F02AFC054B064A6821064800F024FC95
:101EB000024B034A6821034800F01EFCB879001069
:101EC000A87D0010D479001070B505000C00160034
:101ED00000292FD034D0037B994231D84B005B18B6
:101EE000033B0268944663445A78002A2ED19A78BC
:101EF000002A31D11978FFF793FF0300002E0AD092
:101F0000EA7B002A2ED1AA7B002A03D1EA7B002A91
:101F10003BD1AC73EC73002B3DD1002C4FD02B7B0D
:101F20009C424CD82B6861000C19033C1C190023FF
:101F3000637070BD254B264A3821264800F0DCFB33
:101F4000254B264A6821264800F0D6FB254B204A1F
:101F50003A21204800F0D0FB234B1D4A3B211D486D
:101F600000F0CAFB002A0AD0297B8A4207D8510018
:101F70008A18033A29688C4662445470C3E7164BAA
:101F8000164A6821164800F0B7FB184B104A422148
:101F9000104800F0B1FB002B0BD02A7B934208D8ED
:101FA00043001B18033B2A689446634400229A703E
:101FB000B3E7094B094A6821094800F09DFB064B2D
:101FC000064A6821064800F097FBC046F87C0010DE
:101FD000C87D0010007D0010B8790010A87D0010A9
:101FE000D47900103C7D0010647D0010FC7A001054
:101FF00070B504000A00457B2900FFF765FF607398
:10200000280070BD70B50400002966D0437B8B4268
:102010000ED0002911D0037B99420ED84B005B18DB
:10202000033B0268D0188378002B0CD1002055E0C8
:102030000121FFF7DDFF012050E0294B294A6821EB
:10204000294800F059FB002B1FD0227B93421CD85B
:1020500025685A00D318033BEA18EB5C8B421AD070
:10206000002B1BD0227B934218D85A00D318033B75
:102070002268D21853788B4216D0002BF0D11B4B1C
:102080001B4A6B211B4800F037FB154B154A682192
:10209000154800F031FB4378137007E0104B114AEC
:1020A0006821114800F028FB4378537000238370A7
:1020B000437001222000FFF707FF0200617B81428D
:1020C00005D02000FFF74CFE6073012006E00A4BAC
:1020D000074A7121074800F00FFB002070BDC04681
:1020E000B8790010A87D0010D47900105C7700103A
:1020F000DC7D0010007D0010887D001070B5046B41
:10210000E30701D4200070BD02003032C0239B01E0
:1021100013430A4A1A60456A836AAD01ED18AD029D
:10212000062000F0C5F9064901F090FC01002800E6
:1021300001F08CFC0021FFF7C1FCE3E70103000084
:102140004E0E0000F8B504000E001500FFF7D6FF94
:1021500027002C37E16A4E40354080235B013B432A
:102160001D602063F8BD000070B505000C0006205E
:1021700000F09EF9C000210001F068FCC60908D0FB
:102180000E4B9E4216D87F2318400130340046087B
:1021900000E001246C62AE62002200212800FFF7FB
:1021A000D1FF062000F084F98000A101891901F017
:1021B0004DFC70BD0026024CECE7C046FEFF00005F
:1021C000FFFF000010B505394901013AD200114363
:1021D000002B09D002220A43012B07D00021114312
:1021E0006E22FFF7AFFF10BD0022F4E70421F6E7EF
:1021F00010B5002900D010211022FFF7A3FF10BD59
:10220000002909D00A22064B9C46604443425841AB
:102210004000044BC252704780225200F3E7C04690
:102220000080FCBFF818002070B505000C000620E7
:1022300000F03EF9061E27D0164B9D4226D0802284
:10224000D203154B1A60154B1A60154B9B68110091
:102250009943FAD100212800FFF7D2FF210028007E
:10226000FFF782FF06000023012208212800FFF764
:10227000A9FF2A002C3280239B01134310221A60ED
:10228000084B2B630323AB64300070BD8022120423
:10229000D7E7C0460080034000E0004000F0004067
:1022A00000C0004001030000F8B5DE4657464E4628
:1022B0004546E0B505000F0092461E000A9B9E426F
:1022C00050D3330E994636020A9A0023300049460D
:1022D00001F0FAFB80466C006419A4002F4B9C4669
:1022E00064446368834200D260602B1FDBB29B466C
:1022F000012B3DD9C0239B012343802212011A6088
:10230000AB00274A9958002907D0506901F09EFB7D
:10231000431C5800C0180338FDD253465A012368A5
:102320005A40E0231A4080235B0123431A605A4637
:10233000012A28D980239B012343802212011A609D
:1023400043466360424600233000494601F0BCFB2F
:10235000AD00134B585101203CBC90469946A24613
:10236000AB46F8BD0F4B104A3321104800F0C4F9BA
:10237000012FBFD1C0239B01234303221A60A3680E
:10238000DB07FCD5C9E72168794003220A401A60BF
:10239000A3680122BA401A42FAD0CBE7008000407D
:1023A00098120020F47D00104C7E0010087E001072
:1023B00030B583B00C2000F013F9FEF7F5F90028D2
:1023C0000DD00023092B05D899002D4A2D4888509F
:1023D0000133F7E72A4B2C4A5A6203B030BD2B4B2E
:1023E00000229A6700F06EF9294B01221A60274BF0
:1023F0005B6C012BFBD1274B03221A60234B9B6B99
:10240000012BFBD1013300930433234A01212348DC
:1024100000F054F805230093214A0121214800F0DF
:102420004DF8214B0093002202210420FFF73CFFCE
:102430001E4D00952B00002201210520FFF734FFDF
:10244000104C00942300002200210720FFF72CFFEE
:1024500000942300002200210820FFF725FF0A4BEB
:1024600000932300002200210920FFF71DFF0095A3
:102470002B00002200210620FFF716FFADE7C04623
:1024800098120020006CDC021BB7000000800040A6
:102490003CB0004030B00040002F6859008002403E
:1024A000008C864700C00240001BB70040597307EC
:1024B0008000014BC058704798120020F0B5C64606
:1024C00000B504000E0090461D00384801F0BEFA29
:1024D0000700374A4244374B9A423AD801004046F7
:1024E00001F0B4FA0200103A98235B009A4236D801
:1024F0006B1E062B39D8069B013B062B35D843466D
:102500001A09BA4237D32D04069B1F032F432368B1
:10251000002B36DB284B9C4244D080256D01274B95
:102520001D60274B1D60274A92682B009343FAD108
:102530002660A060221DC0239B01134321221A6044
:102540002268002AFCDAE76008221A6004BC904680
:10255000F0BD1D4B1D4A11211D4800F0CDF81D4B4B
:102560001A4A19211A4800F0C7F81B4B174A1C21B8
:10257000174800F0C1F8194B144A2321144800F001
:10258000BBF822683F231340B342C3D1A3681B05A5
:102590001B0D8342BED1E368EE22D2021340BB4240
:1025A000B8D1D3E78025AD01B9E7C046001BB7001D
:1025B00080E84BD380F8A93200C0024000E0004020
:1025C00000F0004000C000405C7E0010807F0010E2
:1025D000BC7E0010FC7E0010187F0010647F00108D
:1025E00080239B000343014AD3627047008005406B
:1025F000024B1A68024B5A607047C04634170020DD
:102600000080054010B50200164B8020C005186000
:10261000154B1648186000290AD0154BE021C90453
:102620001960002A09D1124B802212061A6010BDCF
:102630000C4BE021C9041960F3E75001801A8000B7
:10264000801800010B4B186080235B04984202D372
:10265000084B094A1A60FFF7CBFF054B8022D205D1
:102660001A60E4E700B0054008200140FCFF0100CB
:1026700000A0054034170020FFFFFF0010B5030045
:1026800010000C4A8024E4051460002B0DD00122B8
:102690001343094A094CD461094C5C4014625162ED
:1026A00093620021FFF7AEFF10BD034B0022DA61F9
:1026B000F7E7C04600B0054000800540D3C007B032
:1026C0002D3FF84F064BAA2212011A602F22DA6022
:1026D000044B054A1A60024B5B68002BFBDA70471B
:1026E000004002400060024000B0FA0000BEFDE77A
:1026F00010B5FFF7FBFF000010B582B00C00190009
:10270000002A0CD0084B002A0BD001920093230022
:102710000200064802F044FA0120FFF7E7FF044BED
:10272000F1E7034AF1E7C0468C7F00109C7F001060
:10273000987F001070B52B4B2B4A1A602B4B2C4AFC
:102740001A602C4B9A682A4B9343FAD12A4C2B4B94
:102750009C4202D208CC9847F9E7FFF729FE234BA9
:10276000274A1A60234B9B68DB43DB01FAD1254BD8
:1027700040229A675A671A67DA66234C09E0234BAE
:10278000234A87212348FFF7B7FF2000FEF7F6FB17
:102790000834214B9C4209D22368002BF5D0012B31
:1027A000EDD12000FEF7F7FB0834F2E71B4CA168DF
:1027B0001B4DC022280002F09BF8A560EFF30583B3
:1027C000002B00D000BEFEF751F8FEF7ADFBFEF780
:1027D00045FF144C144B9C4202D208CC9847F9E7B1
:1027E00070BDC04600E00040BFCDFBFE00F00040E1
:1027F000FE7F3C0000C00040B00C0020C00C002058
:10280000FFFFFF0100F00140A80C0020CC7F00106A
:1028100044800010EC7F0010B00C002000ED00E0C0
:1028200000000020C00C0020C80C00200FB400B530
:1028300083B0084802F084F9049B002B07D005A957
:102840000191180002F08CF9034802F079F9012097
:10285000FFF74CFF3080001040800010704710B52B
:10286000002802D00B684968984710BD010000207D
:102870000A681378303BDBB2092B08D883001B1899
:102880005B00501C08601078C0183038F0E77047C3
:10289000F0B5DE4657464E464546E0B583B0934612
:1028A0001F000C9B9A460D9C0E9B99460F9B9B0705
:1028B00003D0B8460F00060022E00192A3468846E6
:1028C0004E46B9460700B44207D2551C4B46414616
:1028D0002020B84701342A00F5E73D004F465C460A
:1028E000019B9B46B1464646B84637002E0007E09E
:1028F000013C551C5346185D43463900B0472A0039
:10290000002CF5D135003E0047460F9B9B0707D4AE
:10291000100003B03CBC90469946A246AB46F0BDC1
:10292000B0464E46B9462F005D46531BB342EFD228
:10293000541C4B4641462020B8472200F5E7F0B52D
:10294000CE46474680B585B0944698460C9D0D9C72
:102950000EAB1B789946109A119B129EB7071BD499
:10296000002B08D0F70706D54F46002F02D10C37B1
:10297000374200D0013B944208D21F2C06D83027A2
:102980002F550134F7E730272F550134F70703D5CA
:102990009C4201D21F2CF6D9F70615D5770505D430
:1029A000002C03D0944224D09C4222D00F9A102AAB
:1029B0002BD00F9A102A30D00F9A022A35D01F2C14
:1029C00002D830222A5501341F2C05D84A46002A45
:1029D00031D02D222A55013403960293019400959B
:1029E00043466246FFF754FF05B00CBC904699463B
:1029F000F0BD621E012C06D00F9F102F01D01400D5
:102A0000D4E7023CD2E71400D0E7B206D1D41F2CA1
:102A1000CFD878222A550134D1E7B206CCD51F2C65
:102A2000CAD858222A550134C9E71F2CC7D86032AA
:102A30002A550134C3E7720703D52B222A550134E6
:102A4000CAE73207C8D520222A550134C4E7F0B5B9
:102A5000DE4657464E464546E0B593B081468A4627
:102A6000089209931CAB10CB1B789B461E9D219BA3
:102A70009846002C03D1102342469A439046802367
:102A8000DB0046461E4042461A4212D0002C22D09D
:102A900000260EE03033D9B2771C0AAB99552900D5
:102AA000200000F0D3FFAC4216D31F2F14D83E00F5
:102AB00004002900200000F0C9FFCBB2092BE9D99E
:102AC0004246920605D54121C918C9B20A39C9B290
:102AD000E2E76121F8E7270043460693209B059330
:102AE0001F9B049303955B46029301970AAB0093E7
:102AF000099B089A51464846FFF721FF13B03CBC9A
:102B000090469946A246AB46F0BDF0B5DE46574624
:102B10004E464546E0B595B0089009910A920B9350
:102B20001E9E1F9C20AB1B789B46229B9946239D93
:102B3000269B9A463300234303D1103352469A43CF
:102B400092468023DB0057461F4052461A4219D056
:102B5000330023432DD0002714E03033DAB27B1C3E
:102B600098460CABDA554A462B003000210000F0A5
:102B7000ABFFA5421FD819D043461F2B1BD8474691
:102B800006000C004A462B003000210000F09CFF9C
:102B9000D3B2092BE1D95246920605D54122D2186B
:102BA000D2B20A3AD2B2DAE76122F8E7B145E3D904
:102BB00001E00023984653460693259B0593249BEA
:102BC00004934B4603935B460293434601930CAB3D
:102BD00000930B9B0A9A09990898FFF7B0FE15B06D
:102BE0003CBC90469946A246AB46F0BDF0B5DE46E9
:102BF00057464E464546E0B591B083468A460C920C
:102C000098461A9C08941B9D099522002B002000D1
:102C1000290001F0E4F9002800D0E5E00122524249
:102C2000D34B2000290001F0D5F9002800D0DBE0CB
:102C300001225242CF4B2000290001F0B5F90028B3
:102C400000D0D1E000220023089D2800099E310019
:102C500001F0AAF9002800D0DDE008980999069053
:102C600007918023DB001E9A1A400D921E9A1A4289
:102C700001D106231C930698079904000D000A0051
:102C80000600024300D1CDE0080D4005400DBA4CCE
:102C9000A44660440A03120BB84B13431F0001F013
:102CA000B1F9B74AB74B01F03CF9B74AB74B01F05D
:102CB00011F904000D000022B54B3000390001F07D
:102CC00000F9B44AB44B01F02CF902000B002000CB
:102CD000290001F0FFF801F0ADF9814601F092F909
:102CE00004000D00AD4AAE4B01F01BF90022AD4BC4
:102CF00001F0F0F801F09EF90600AB4AAB4B200062
:102D0000290001F00EF904000D00300001F07AF9FD
:102D1000A74AA84B01F005F902000B00200029008A
:102D200001F0CFF804000D0002000B0001F0F9F8EB
:102D30000A900B91A04BF31800261F0522002B00D0
:102D40002000290001F0C6F80E900F9122002B0000
:102D500000208021C90501F0B4F804000D00002214
:102D6000964B0A980B9901F0BEF80022944B01F0A3
:102D7000B1F802000B000A980B9901F0B4F8002298
:102D8000904B01F0A7F802000B000A980B9901F094
:102D9000AAF802000B002000290001F09BF80200B5
:102DA0000B000E980F9901F09EF80022734B01F072
:102DB00091F832003B0001F0B4F806000F00040067
:102DC0000D00069A079B01F005F900282CD001237D
:102DD0005B429C46E1440022794B3000390001F00F
:102DE00082F804000D001FE01E9B04931D9B0393BB
:102DF0001C9B0293089A099B0092019343460C9AEC
:102E00005146584600F0F8F811B03CBC904699463F
:102E1000A246AB46F0BD069580231B069C46664441
:102E200007961EE7002399464B466333C62B1FD8EF
:102E300004261E9B1B0527D52B00234310D0624A76
:102E4000624B0698079901F0BDF8002800D183E095
:102E500000225F4B0698079901F0A6F800287BD066
:102E60001C9B4B4506DD4A46981A431E1C9303E003
:102E70000526DEE700231C938023DB001E9A1A43FD
:102E80001E920026002399461D9B9E426ED29F1BD8
:102E900002231E9A1A400A921E9A134202D0002E52
:102EA00000D000274B46002B07D022002B000698AD
:102EB000079901F018F8069007910022002308985E
:102EC000099901F071F8002800D085E0414B1E9A65
:102ED0001340049303971C9B0293069B079C00934B
:102EE000019443460C9A5146584600F085F8002E4E
:102EF00000D189E71E9B9B067AD54525441C434695
:102F0000020051462800D8474B46DA179B18534019
:102F100005220592013E0496002203920A32029293
:102F20004A46D00F0190009343462200514658462E
:102F3000FFF78DFD0A9B002B00D165E702005F467D
:102F40000C9E1D9D931BAB4254D2541C43465146CC
:102F50002020B8472200F5E71C9B002B94D00D9B46
:102F6000002B91D01C9B013B1C938DE700278FE722
:102F7000FFFFEF7FFFFFEFFF01FCFFFF0000F03FCF
:102F8000FB799F501344D33FB3C8608B288AC63F58
:102F90000000F83F61436F63A787D23F71A37909AF
:102FA0004F930A400000E03F1655B5BBB16B02409D
:102FB000EF39FAFE422EE63FFF03000000002C40EE
:102FC00000002440000018402D431CEBE2361A3F5D
:102FD00080842E41FFF7FFFF069C079D22002900F9
:102FE00080200006844661440B00069207936DE73B
:102FF000652583E7100007E7F0B5DE4657464E46E5
:103000004546E0B595B00690079193469946209FB6
:103010001E9A1F9B1000190000F0E1FF002831D11B
:1030200001225242BF4B1E981F9900F0BDFF00289D
:1030300037D101225242BC4B1E981F9900F0CAFFA3
:1030400000283DD10022B94B1E981F9900F0C2FF05
:10305000002850D10022B64B1E981F9900F0A4FF03
:10306000002848D1002200231E981F9900F09CFFE1
:10307000002850D100239846229B5B0500D4B6E07F
:10308000002458E0229B0393219B02930323019386
:10309000A84B00934B465A4607990698FFF7F8FB52
:1030A0000EE1229B0393219B029304230193A24BE5
:1030B00000934B465A4607990698FFF7E9FBFFE055
:1030C0000423229A1A4022990B4210D09B4B002ACB
:1030D0000FD0042222990391219902910192009329
:1030E0004B465A4607990698FFF7D2FBE8E0944B07
:1030F000EDE70322EEE7229B0493219B03930297C3
:103100001E9B1F9C009301944B465A4607990698B4
:10311000FFF76CFDD4E01E9A1F9B0020002100F0F9
:10312000D0FE1E901F9101239846A5E70CAB3022DC
:103130001A55013F01341F2C01D8092FF6D81E98CB
:103140001F9900F077FF050000F05CFF02000B0004
:103150001E981F9900F0B5FEFA007A4B9B181A686A
:103160005B680A920B9300F0DCFE0890099100F076
:1031700085FF060000F042FF02000B000898099945
:1031800000F09FFE0890099100226F4B00F022FF93
:1031900000282ED00136300000F030FF02000B0076
:1031A0000A980B9900F006FF002801D0013500268F
:1031B000002F2CD1280000F025FF02000B001E98E4
:1031C0001F9900F07EFE06000F0000225E4B00F00B
:1031D000EBFE002842D100225B4B3000390000F0AA
:1031E000F9FE00283AD1EB0738D5013536E006273D
:1031F00046E70022544B0898099900F0D5FE0028B4
:10320000D6D1002E01D0F307D2D50136D0E7AA4699
:103210001F2C11D8013F0A21300000F017FC651C5B
:1032200030310CAB19550A21300000F00FFC092E8B
:1032300026D906002C00EBE7554604E00CAA302105
:1032400011551F0001341F2C02D87B1E002FF5D111
:103250001F2C03D80CAB2E221A5501341F2C14D866
:103260000A21280000F0CAFB661C30310CAB19554E
:103270000A21280000F0C2FB051E05D03400EDE74E
:103280002B0055461C00DEE734000323229A13402E
:10329000012B1CD01F2C06D84346002B32D00CAB80
:1032A0002D221A550134229B0393219B02930194F2
:1032B0000CAB00934B465A4607990698FFF7E8FA7D
:1032C00015B03CBC90469946A246AB46F0BD219B4A
:1032D000002B13D04346002B02D10C3313420FD0E6
:1032E000219B013B2193190003E00CAB30221A55BE
:1032F00001348C42CED21F2CF7D9CBE72199F8E7C5
:103300002199F6E7229B5B0704D50CAB2B221A55BB
:103310000134C8E7229B1B07C5D50CAB20221A55E8
:103320000134C0E7FFFFEFFFFFFFEF7F65CDCD4129
:1033300065CDCDC160800010648000105880001001
:1033400054800010508200100000E03FF0B5DE46CF
:1033500057464E464546E0B593B082468B4690466A
:103360001193002900D1ECE200275546119B1878F3
:10337000002800D1E8E2252809D07C1C43463A0009
:103380005946A847119B013311932700EEE70133FB
:10339000119300241DE00B00303BDBB2092B37D921
:1033A0002A293AD000230A93119B1A782E2A44D056
:1033B00000239A46119A1378683BD9B2122900D992
:1033C00080E08B00CB49CB589F4601231C43013240
:1033D0001192119A11780B00203BD8B21028DAD83C
:1033E0008300C548C3589F4602231C4301321192F3
:1033F000EFE704231C4301321192EAE708231C4340
:1034000001321192E5E710231C4301321192E0E7EB
:1034100011A8FFF72BFA0A90C6E71C9B1A1D1C92F5
:103420001868002804DB0A90119B01331193BBE755
:1034300002231C4343420A93F6E78022D20014433E
:103440005A1C11925A781300303BDBB2092B04D975
:103450002A2A07D000239A46ACE711A8FFF706FAFC
:103460008246A7E71C9B1A1D1C921868002804DBE3
:103470008246119B013311939CE70020F8E78023DB
:103480005B002343511C119152786C2A01D01C001F
:1034900018E0C0239B001C430131119112E08023EE
:1034A0002343511C11915278682A01D01C0009E075
:1034B000C0231C430131119104E080235B001C43B5
:1034C00001321192119B18780300253BDAB2532A7E
:1034D00000D92CE29300894AD3589F4680239B0051
:1034E0001C4301321192EDE780235B001C43013243
:1034F0001192E7E7782809D0582838D06F2838D0BB
:10350000622838D010239C430A2600E01026582851
:1035100033D0692803D0642801D00C22944363057A
:1035200001D50122944369282AD0642828D0A30514
:1035300000D59FE0E30500D5B8E0630600D4CAE0FB
:103540001C9A111D1C911168FF220A4005940A9BC8
:10355000049353460393029600230193009243463B
:103560003A0059462800FFF772FA070027E01026B4
:10357000CDE70826CBE70226C9E720221443C8E797
:10358000A30520D4E30550D4630666D51C9A111D0B
:103590001C911168FF220A40D317D1185940059495
:1035A0000A9B0493534603930296D20F0192009113
:1035B00043463A0059462800FFF749FA0700119B95
:1035C00001331193D2E61C9BDA1D07218A431100B7
:1035D00008311C91116853689C46DB170C930D93BE
:1035E0000C9A0D9B100048400E90624653400F937A
:1035F0000E980F990C9A0D9B801A99410E900F917D
:1036000008940A9B07935346069304960023059358
:103610006346DA0F02920090019143463A00594600
:103620002800FFF772FA0700C9E71C9A111D1C91C8
:103630001268D317D118594005940A9B0493534636
:1036400003930296D20F0192009143463A005946E5
:103650002800FFF7FCF90700B1E7230605D51C9AFF
:10366000111D1C910023D25E96E71C9A111D1C911E
:10367000126891E71C9BDA1D07218A43110008316B
:103680001C9108940A9B07935346069304960023C3
:1036900005930293136854680093019443463A00DB
:1036A00059462800FFF731FA070088E71C9A111DD8
:1036B0001C9105940A9B049353460393029600239E
:1036C00001931368009343463A0059462800FFF7D8
:1036D000BEF9070073E7230606D51C9A111D1C913D
:1036E00012681204120C31E71C9A111D1C91126809
:1036F0002CE7C0466C800010B8800010FC800010E1
:1037000046281AD01C9B0733072293431A0008321D
:103710001C9204940A9A0392524602925C681B68B7
:103720000093019443463A0059462800FFF764FC91
:103730000700119B0133119318E620231C43E1E796
:10374000672801D0472802D180231B011C4345284C
:1037500001D0472801D120231C431C9B073307229B
:1037600093431A0008321C9204940A9A0392524618
:1037700002925C681B680093019443463A005946E4
:103780002800FFF733FA0700119B01331193EDE591
:1037900002231A002240924623421FD001241C9B80
:1037A0001A1D1C927A1C9146187843463A005946D5
:1037B000A8475346002B16D1119B013311934F4656
:1037C000D4E5561C434659462020B8472300320012
:1037D0005C1C9D42F5D83D001700E0E701233A004C
:1037E0002F000A9DF4E74A46A9460A9D06E0571CA9
:1037F000434659462020C84734003A00661CA5427B
:10380000F5D84D469146D7E71C9B1A1D1C921B68A4
:1038100099465346002B00D1013B4E4601E001364C
:1038200013003278002A02D05A1E002BF7D14B46E3
:10383000F21A10928023DB0026001E401C4203D0A7
:10384000524501D95346109302231A0022400B928D
:10385000234205D03A0037004C46A946554620E0A1
:103860003A00109B5F46B3462E0006E0551C4346C7
:1038700039002020B04723002A005C1C0A99994295
:10388000F4D835005E46BB46109437004C46A94636
:10389000554606E01D000134561C43465946C847AC
:1038A00032002078002804D0002FF4D06B1E002DA9
:1038B000F0D117004D460B9B002B03D1119B013318
:1038C000119353E50A9F109B06E0561C4346594648
:1038D0002020A847230032005C1C9F42F5D8170027
:1038E000ECE721231C431C9B1A1D1C921B680093B0
:1038F0000594082304935346039310230293002353
:10390000019343463A0059462800FFF7A0F8070004
:10391000119B0133119329E57C1C43463A0059461B
:103920002520A847119B0133119327001EE57C1C1D
:1039300043463A005946A847119B0133119327008B
:1039400014E50B4B9A460FE5AA4647450DD343466F
:103950005A1E434659460020D047380013B03CBC9D
:1039600090469946A246AB46F0BD3A00F1E7C04604
:103970005D28001000B585B00290039101210093ED
:1039800013004A4202A90248FFF7E0FC05B000BD5F
:103990005F28001001480421014B1847300C00201B
:1039A000C539001010B5010018231B881422108897
:1039B000984710BD10B5010018231B8816221088E7
:1039C000984710BDF0B5C64600B507000E000025AB
:1039D0000123984600E00135B5420AD2AC003C19FB
:1039E0002068FFF7DFFF20600028F4D1002398460D
:1039F000F1E7404604BC9046F0BD0000124A936FC8
:103A00009B0815D29066D166002905D0FFE7FFE735
:103A1000FFE7516F106F704704B580210906C21788
:103A20005140002800D0C84303F01EFD002104BD12
:103A3000F0B5146E556E576F166FFFF7E3FF1466FF
:103A4000556657671667F0BD000000D0114A936FA6
:103A50009B0813D210665166002905D0FFE7FFE7E7
:103A6000FFE7516F106F704704B5002801D00020A8
:103A7000C04303F0F9FC002104BDC046F0B5146E4C
:103A8000556E576F166FFFF7E5FF1466556657675B
:103A90001667F0BD000000D094464A4A926F920823
:103AA000624601D228E0C046F0B5464E346E756ECF
:103AB000776F366F00F020F89446424A14665566D8
:103AC000576716676246F0BD94463E4A926F920869
:103AD000624601D254E0C046F0B53A4E346E756E7F
:103AE000776F366F00F04CF89446364A1466556688
:103AF000576716676246F0BD002B24DB11D0002902
:103B00003EDA00B5C943404200D1013100F038F837
:103B1000C943404200D10131DB43524200D101335D
:103B200000BD002AEBD1002801D1002905D00020DA
:103B3000C90FC90701D1C043410800B503F084FC97
:103B40000022002300BD00B500290ADBDB435242FE
:103B500000D1013300F014F8C943404200D10131D3
:103B600000BDC943404200D10131DB43524200D184
:103B7000013300F005F8DB43524200D1013300BDB0
:103B8000002923D1002B18D1002A0CD0BC460D4FA0
:103B900038667A6600210023FFE7FFE7FFE77A6FC8
:103BA000386F67467047002801D00748010000B50C
:103BB00003F04AFC0022002300BD02000B0000209D
:103BC00000217047000000D0FFFFFFFF002B00D056
:103BD000BFE0130C28D1002AE7D080B4114F39661A
:103BE0007A66FFE7FFE730B4040C7B6F396F1B0484
:103BF00023433B667A66FFE7FFE7FFE7C04684B2F0
:103C00007B6F3D6F1B0423433B667A66FFE7FFE74C
:103C1000C04600232C042D0C7A6F386F00196941BF
:103C2000B0BC7047000000D0F0B594460025140EDB
:103C300001D112020835140F01D112010435940F7D
:103C400001D192000235D40F01D152000135D40BBD
:103C50000134254F7C66254C3C660E0C93B2FFE781
:103C6000FFE7FFE73C6F6643360C7703BE467343BE
:103C7000DF0B5B04C01AB941130C7343DB18C91A7C
:103C8000CE086643360CB64493B273431F0F1B0134
:103C9000C01AB941130C73431F0B1B05C01AB9415D
:103CA000860D8F023E436643360C092D24DB520AF3
:103CB0007243801A7703460A6643360C16235B1B51
:103CC000DE40DF40BF1964466643821B7046043500
:103CD00006330100D940A840C01900D30131A242E7
:103CE00006D20023F0BD0000000000D0FFFFFFFF60
:103CF000121B0130F3D3F1E709277F1BFE40644616
:103D0000A2B27243801A00D20139220C7243130C02
:103D10001204821A99410B007046043513370100D2
:103D2000F940A840801900D30131002B02D1A242F2
:103D30000AD2F0BD013000D30131121BFAD2013B8F
:103D4000F8D1A24200D2F0BD013000D30131121BE4
:103D5000F7E7F0B51C0C00D080E00CB400251C0A7D
:103D600004D11B02160E3343120208351C0B04D17A
:103D70001B01160F3343120104359C0B04D19B0029
:103D8000960F334392000235DC0B02D192185B414F
:103D900001351C00971864410134464F7C66464C3F
:103DA0003C660E0CFFE7FFE7FFE7C0463C6F66434B
:103DB000360C7703BE4697B27743C01B00D2013959
:103DC000C01B00D201399FB27743C91BC91B170C16
:103DD00077437E04FF0B801BB941CE086643360C47
:103DE0000C2D33DBB644120B1F053A431B0B97B265
:103DF0007743C01B00D201399FB27743C91B170C10
:103E000077433E043F0C801BB941860D8F023E4331
:103E1000664329277F1BFE400C3D7746AF40BF1904
:103E200030BCA2B2ABB272437343801A9941220CE8
:103E30007243130C1204801A994102000B000137DF
:103E4000001BA941F9D2781E0021F0BD0C277F1B71
:103E5000FE4077467F0BAF40FF19E0E700245D1C72
:103E600007D0144F7D663966FFE7FFE7FFE7FFE7FE
:103E70003C6F95B29EB265436643401BB141150C41
:103E80001E0C6543664336042F0C3E432D04401B35
:103E9000B141994204D202000B0020000021F0BD84
:103EA00001D19042F7D3801A994101349942F2D35B
:103EB000F6E70000000000D0FFFFFFFF4840414050
:103EC000484018B41B4B5B68FC46019308BD04DFF7
:103ED0009741001018B4174B1B68FC46019308BDAE
:103EE00000DFA14100109446134A926F920809D254
:103EF000624618B40F4BDB68FC46019308BD0CDF2B
:103F0000594400100C4AF0B5146E556E576F166F79
:103F10006246FFF7EEFF084A146655665767166754
:103F2000F0BD18B4034B9B68FC46019308BD08DF45
:103F3000FD420010FC180020000000D0FFB55040EA
:103F40004240504059404B40594000E0FFB5154FAA
:103F50004C00640D03D0BC4204D10C0314D80020E3
:103F6000090D09055C00640D03D0BC4204D11C039B
:103F70000AD800221B0D1B0501264B4009D44B40DB
:103F800003D58B4200D18242FFBD9942FCD19042C1
:103F9000FFBD0B43DB1803431343F5D0C943491856
:103FA000FFBD0000FF07000000B5FFF7CFFF804115
:103FB00000BDC04600B5FFF7C9FF01D9002000BD14
:103FC000012000BD00B5FFF7B9FF01D9002000BDF9
:103FD000012000BD00B5FFF7B1FF804100BD012009
:103FE00040054A00121804D85A00121801D80020BF
:103FF0007047012070470020704700000021002812
:1040000005D17047C1174840401AFAD0C90713B507
:10401000064B1B6898470CBC441CA2401005120BB1
:104020000349091B09051943114310BD64180020F9
:104030001F04000010B54C00620D8023D218DB0075
:10404000D21A5B057E2A10DD9E3A13DACC170903DB
:10405000490819435242D140640001341532202AE4
:1040600005DAD0400843604310BD002010BD08466B
:10407000604310BDC80FC018013810BD18B4044B00
:104080005B6AFC46019308BD24DF0946001000006E
:10409000FC18002070B513231C78012C0CD0012CC7
:1040A00013DC022C02DC1F4A1F4B9A641F48FFF7E7
:1040B00079FC1F4B186070BD00231F2BEFD89900AF
:1040C0001848194A88500133F7E71A48FFF772FC7D
:1040D00005001948FFF76EFC023803789B007F2B20
:1040E00019DD80222900104800F002FC022CD8D1F2
:1040F000124B1A88B5231B029A4209D1104B1A8819
:10410000104B9A4204D1104B1A88104B9A42C8D0D7
:104110000020FEF78BFB0E4B0E4A32210E48FEF7B5
:10412000EBFAC0465D410010FC1800204C33000043
:104130006418002053440000534600005438000027
:10414000D8380000494600009C380000594600005D
:10415000A082001040830010F482001007B5604672
:10416000002800D100BE01880A0A0230DF2AFAD1F5
:10417000C9B2820804D3028840880004104300E0DA
:104180000068024A5050039007BD0000FC18002050
:104190000FB403BC0CBCF0B50124E407634000E09D
:1041A000F0B50C0DCF0F661E3605891B640503D3D1
:1041B000C943404200D30131640D03D0661CF60AA6
:1041C00007D0E41B00207F00791C89078912803CFE
:1041D00024031D0DDF0F6E1E36059B1B6D0503D3DB
:1041E000DB43524200D301336D0D03D06E1CF60A3F
:1041F00007D0ED1B00227F007B1C9B079B12803D9C
:104200002D032F1B661B58D4A446202E46DA2037D8
:104210001400BC401D00BD40F24033412A438018C9
:104220005941CB0F05D0C943C043002264425041DD
:10423000514162464D0D28D10D0D07D100281FD0E8
:10424000241940414941013A0D0DF9D0640006D3CB
:10425000013000D30131002C01D140084000013A67
:104260000BD4941CE40A04D112051144DB07194451
:10427000F0BDD907204B194300E0D9070020F0BD5D
:104280000029DDD1002CDBD1F0BD0132C60740088A
:10429000CD0728434908002EE1D0D9E73C2E29DA82
:1042A000203E40371400BC4000D00124F2401443AB
:1042B0001A00BB401C43D317ACE7AC46202F08DAEA
:1042C00020360400B4400D00B540F8403941284381
:1042D000A5E73C2F0CDA203F40360400B44000D064
:1042E0000124F84004430800B1400C43C117EAE739
:1042F00010001900002494E70000F07FF0B50C0DC9
:10430000661E3605891BE60A6405640D02D0651C2D
:10431000ED0A04D0002001210905803C2403A446B5
:104320001C0D671E3F05DB1BE70A6405640D02D008
:10433000651CED0A04D0002201231B05803C2403E8
:104340007740644497B484B296B27443070C7E43BA
:10435000150C6F4380B26843361802D30120000465
:104360003F183004350C00197D41844688B29AB25A
:1043700050430C0C62431F0C7C438EB27E43921957
:1043800002D301263604A4191604170C3618674107
:1043900001BC81B29AB25143040C62431B0C5C43D2
:1043A00080B25843121802D30120000424181004CC
:1043B000130C401863412D185E410020474106BC94
:1043C00088B293B258430C0C6343120C544389B225
:1043D00051435B1802D301210904641819041A0C13
:1043E000091862416D1856410020474118BCF90276
:1043F000720D1143F0026A0D1043ED020A0D03D154
:104400006D1940414941013B124E9B1B7600B3425E
:104410000ED26D0007D30130002671416646354348
:1044200001D1400840001B05C918E4072144F0BD34
:104430000BDA013306D1013004D101314F0D01D027
:104440004908F2E7E1070020F0BD01363105002000
:10445000EBE70000FF030000F0B51C0D671E3F05F1
:10446000DB1BE70A6405640D02D0661CF60A04D063
:10447000002201231B05803C2403D0252D060026A5
:10448000F6432E661E096E66CE0FF619B446490035
:104490004F0D02D07E1CF60A03D000200021403FC1
:1044A0003F033E1BB600B444013F7F05C91B4908CA
:1044B0002E6F013676089C02950D25437543ED134A
:1044C0007543AD1301356D10F603761B0CB4CC02A9
:1044D000450D2C43A2B2B3B25A43270C7B43350C93
:1044E0006F43A4B26C431B1902D3012424043F1967
:1044F0001C041D0CA4187D4124196D41009A91B231
:10450000ACB26143170C7C432B0C5F4392B25A430D
:10451000A41802D301221204BF182204230C52183B
:104520007B41019C6C431B19520ED9010A43440183
:10453000A01A81B2B2B2514303145A43360C7343EA
:1045400087B27743D617D21900277E4136049B19CC
:104550001704160C7F185E417316ED18F301002640
:1045600080337541A90F06D16400690AE8055B0A2A
:10457000184309D22FE00422944480337541A90ADC
:10458000A8059B0A184326D3404149412404009AB8
:10459000019B0D005543641B4343E41A95B286B258
:1045A0007543170C7E43030C5F4392B25A43B6180F
:1045B00002D301221204BF183204330C52197B417A
:1045C00052429C41002C02D400220130514140084B
:1045D000CA071043490802B06246D7079210084B39
:1045E000D218084B9A4203D212058918C919F0BD96
:1045F0000020002A01DC3900F0BD01331905F5E780
:10460000FD030000FE070000002200B5203200F08C
:1046100004F8080000BD000000220B150AD410B5F4
:10462000944600F031F81414013400DA0021CB175D
:10463000144C20470020002170476244343A0CD4C7
:104640000C2A07DA04009140904052422032D440B4
:10465000214310BDD843D94310BD203207D40C46A6
:104660009440524220321141D040204310BD0800F6
:10467000C917203203D452422032104110BD180015
:10468000190010BD3B4600100A0DCC0F531E1B0530
:10469000C91A520503D3C943404200D30131520D18
:1046A00003D0531CDB0A07D0121B00206400611CDE
:1046B00089078912803A1203014BD21A7047000011
:1046C000FF03000051434343C9188C46110C83B2C9
:1046D0004B4310B4040C614392B280B25043624326
:1046E0001C041B0C001910BC59411304120CC018F7
:1046F0005141614470470000484041404840002318
:104700009C46114B5B68184700239C460E4B1B6868
:1047100018470E4A936F9B0804D200239C460A4B0D
:10472000DB681847F0B5146E556E576F166FFFF7BC
:10473000F4FF064A1466556657671667F0BD0023F6
:104740009C46014B9B681847FC190020000000D0D4
:10475000C10FC90700D54042002817D0F44603B462
:104760000B4B1B68984706BC81409E384042803105
:1047700007D20B0607D04900490AC0051043084379
:1047800060470130F8E7490A8902F5E77047000001
:104790006418002000239C46014B5B6A1847000008
:1047A000FC19002070B513231D782A48FFF702F981
:1047B0000400012D11D0012D09DDA31E1B789B00E3
:1047C0007F2B40DD80222100234800F091F8234810
:1047D000FFF7E8F8224B186070BD542201001E4814
:1047E00000F086F81F4B1A881F4B9A421CD1A72352
:1047F0009B011A881D4B9A4216D11D4B1A881D4BDE
:104800009A4211D11C4B1A8894239B019A420BD1D6
:104810001A4B1A881A4B9A4206D11A4B1A681A4B2D
:104820009A4201D1152307E01848FDF7FFFF9900D0
:104830001748094A885001331F2BF8D9144A064BF0
:104840001A62DA61B7E7134B134A42211348FDF7A6
:1048500053FFC04653460000FC1900204C330000B3
:1048600064180020EE290000C40F0000C20D0000F3
:10487000962B0000C0B50000182B0000CC2A0000C9
:1048800010B50000FC2C000051ED8764987F0010EB
:10489000A148001054830010D083001088830010BA
:1048A00007B56046002800D100BE01880A0A023020
:1048B000DF2AFAD1C9B2820804D3028840880004F2
:1048C000104300E00068024A5050039007BD00000A
:1048D000FC19002001480421014B1847400C00201E
:1048E000C5390010014B1B6818470000400C002020
:1048F000014B5B6818470000400C002010B5030016
:10490000080011001B68984710BD0000F8B50700AB
:104910000D001600437D002B02D0002400200CE087
:1049200003681100280098472DE03B7D10E002212C
:1049300015483B689847601C0134B44214DA002CD7
:10494000F3DD2B19013B1B780D3B5A425341DBB27F
:104950002A5D0A2AF0D1002BEED1A042E7DA211A13
:1049600028183B689847E2E7B04203DA311A281862
:104970003B689847002E06DDAD19013D2B780D3BB5
:104980005A4253413B75F8BD6C84001070B5050068
:104990000368002B16D00C4B1C6805E0290004C9E5
:1049A0002000FFF7B3FF2469002C09D02368002BF7
:1049B000F9D0064B1B68002BF0D0A342F3D1EDE7F2
:1049C00000232B6070BDC046281300203013002048
:1049D00070B505000C000B68802B05D021684B1CBE
:1049E00023606418257170BD0800FFF7CFFFF5E75D
:1049F00010B5FDF745F802000B1E0BDB0D4800213A
:104A000012184B41002B0BDB002B0DDB0A4802F088
:104A10004BFD10BD094B0A4A3F210A48FDF76CFEC9
:104A200001225242084BEFE7044B054A3F2105485B
:104A3000FDF762FE40420F00A80C002070780010C5
:104A4000548400108C780010FFFFFF7F10B50248DF
:104A500002F0F2FC10BDC046A80C0020F0B5CE4616
:104A6000474680B583B006000D0090461C00FFF756
:104A7000BFFF81466B1C05D0002C08D0194F1A4B84
:104A80001C6807E0300002F097FC0500F4E7174FC0
:104A9000F5E72469002C17D02368002BF9D0144BBC
:104AA0001B68002B01D0A342F3D12A003100200063
:104AB000B8474346002BECD06B46D91D0A230B7038
:104AC00001222000B847E4E74B46002B07D1681EBF
:104AD0008541E8B203B00CBC90469946F0BDFFF7A3
:104AE000B5FFF4E7FD480010281300200D49001021
:104AF00030130020094A1368002B0BD0834202D0E8
:104B000010331A00F7E7002907D103691360002367
:104B1000036102E0002900D01060704728130020D4
:104B200010B5064B1C6800E02469002C04D06368B3
:104B3000002BF9D09847F7E710BDC0462813002096
:104B400070B5050002F038FC0400002301220100CA
:104B50002800FFF783FFFFF7E3FF200070BD000090
:104B600070B5A2B004000E00FFF742FF050000235D
:104B700001933300220001A90848FEF7FBFE040060
:104B800001A8FFF703FFFFF7CBFF002D02D12000A4
:104B900022B070BDFFF75AFFF9E7C046D1490010B7
:104BA0000FB400B583B004A901C90191FFF7D8FF84
:104BB00003B008BC04B0184710B500F0F9F800F0D5
:104BC0003FFA012010BD0000F0B583B000251AE0C7
:104BD0006B4607330D241C70002403E01F78176018
:104BE00001340133002C1CD19769BF06FCD4F5E7D2
:104BF0001E78166001340133002C03D19669B60685
:104C0000FCD4F5E701358D4210DA094B1A68465D90
:104C1000084BD3185C4263415B00074C1B5FB342F7
:104C2000D6D06B4607331E700024E5E703B0F0BD15
:104C3000841800200080FCBFF8180020F0B583B075
:104C4000070000200DE09369DB06FCD413682B708D
:104C500001340135002CF6D06B4607331B78037006
:104C6000300088420CDA124B1A68936910252C0028
:104C70001C401D4204D1461C38186B46DD1DE9E777
:104C80000C4B1B68002B0CD0094B1A685023936304
:104C900011003431536B38221A4080235B010B43DF
:104CA0001A60002801D003B0F0BD0338FBE7C0460E
:104CB000841800208412002010B5064B1B68002BBE
:104CC00006D0054A126800219163044A106898478B
:104CD00010BDC04684120020841800208C120020D1
:104CE00070B504000E001C4B1B681C4A9818424209
:104CF000504114300500002C03D0194A1268002AD4
:104D000006D0002C19D0164B1C60164B1E6070BDCF
:104D10001549FBF777FE01212800FBF749FE0E4BF2
:104D20001A685023936311003431536B38221A40B0
:104D300080235B010B431A60E5E7094A1268002AE9
:104D4000E1D000229A6300212800FBF731FE0649DA
:104D50002800FBF79BFFD6E7841800200080FCBFEB
:104D6000841200208C120020B94C001070B50D0088
:104D70001C000D4B1860002A0BDA002C0EDA0A4BCF
:104D800018682900FDF750FA01210848FFF7B2FE24
:104D900070BD02211000FBF7E3FCEEE702212000CA
:104DA000FBF7DEFCEBE7C04684180020500C002027
:104DB00010B5064B1B78064B1B78E121012300221E
:104DC00049020448FFF7D2FF10BDC046D48A001044
:104DD000D88A00100040034070470000014B0022B9
:104DE0001A707047F11800204B79FF2B0CD18B798A
:104DF000002B0BD1CB79012B0AD1082A0AD98A784A
:104E0000054B1A70092000E0002070470020FCE7E5
:104E10000020FAE70020F8E7F11800200120704791
:104E200070B501292BD1117953791B020B43154918
:104E300009788B4201D0002022E05378012B03D067
:104E4000022B15D000201BE09378D2781202134376
:104E5000D2050BD55A0A012595407F241C400A48EB
:104E6000FEF7A0FD03002100280098470025F4E785
:104E7000642200210020FDF701FC012000E0012058
:104E800070BDC046F1180020554200000123037098
:104E900000487047B084001010B50B784A781202B1
:104EA0001A438B781B041A43CB781B0613439622B4
:104EB000D200934200D010BD0348FEF773FD0300FB
:104EC000002108009847C04655420000024B186078
:104ED000024B19607047C0468812002090120020D3
:104EE00010B5024B1878FBF76BFD10BDF2180020CF
:104EF00070B5124B1B68002B1BD0EFF3108272B6FB
:104F000019680029FCD0BFF35F8F0C494A60002369
:104F10000B4803700968BFF35F8F0B6082F3108842
:104F200000240025074B1878FBF74AFD20002900D4
:104F300070BDFA24A4000025F4E7C0464418002000
:104F4000F3180020F218002010B584B000212C487E
:104F500002F092FA002838D12A4B1B68002B3CD073
:104F6000EFF3108272B619680029FCD0BFF35F8F8F
:104F700024494A602448037801246340DBB20124B9
:104F800004700968BFF35F8F0020086082F3108807
:104F9000002B22D0FCF782FB0400FCF771FD02001D
:104FA0000B1E1CDBFA208000002112184B41002B45
:104FB0001BDB002B1DDB0121029100210191134914
:104FC00000912000FCF780FB07E001200021404217
:104FD00001F0E8F80A4802F02FFA04B010BD0C4BBB
:104FE0000C4A3F210C48FDF787FB012252420B4B34
:104FF000DFE7074B074A3F210748FDF77DFBC04627
:105000006C18002044180020F3180020F14E001006
:1050100070780010308500108C780010FFFFFF7F43
:1050200010B5054B1868002804D0044B19680022FD
:1050300000F0E4FD10BDC046881200209012002050
:1050400010B584B0D0231B061C68FCF727FBFCF7C7
:105050006BFCA0422AD1324B1B7801F089FD31480C
:10506000FBF78CFF0120FBF76DFFC0B22E4C2070C8
:105070002E49FBF7C7FC20780121FBF799FC05209E
:10508000FBF7AEFC041E17D0002229490520FBF7D0
:10509000E3FCFBF7FBFB01002648FBF78BFF01213C
:1050A0002548FFF727FD200004B010BD234B244AFC
:1050B000B2212448FDF720FBFCF7F0FA0400FCF7CE
:1050C000DFFC02000B1E1BDBFA20800000211218FF
:1050D0004B41002B1ADB002B1CDB0121029100212C
:1050E0000191194900912000FCF7EEFAC443E40F46
:1050F000082200210F48FFF7F5FB002CD3D0CEE7A4
:10510000124B134A3F211348FDF7F6FA012252428F
:10511000114BE0E70D4B0E4A3F210E48FDF7ECFA2C
:10512000DC8A00106C180020F2180020494F001093
:10513000E14E001044180020680C00202077001079
:1051400048850010C8840010F14E001070780010DF
:10515000308500108C780010FFFFFF7F10B5002015
:1051600001F026FA10BD000070B505000C00FFF735
:10517000F5FF002845D0002001F03CFA002843D07C
:10518000FCF77EFC02000B1E21DB224800211218D6
:105190004B41002B21DB002B23DB1F4802F084F95D
:1051A000002834D0FFF7DAFF002804D0002001F0F7
:1051B00021FA00281BD101200021404200F0F2FF1B
:1051C00003246442144802F037F9200070BD134BE9
:1051D000134A3F211348FDF78FFA01225242124B26
:1051E000D9E70E4B0E4A3F210E48FDF785FA220003
:1051F0002900002001F00AFA041EE3D103246442CE
:10520000E0E703246442E0E703246442DDE703248B
:105210006442DAE740420F006C18002070780010FA
:10522000308500108C780010FFFFFF7FF0B5C64678
:1052300000B580460C00FCF723FC02000B1E0FDBC0
:105240003748002112184B41002B0FDB002B11DBDC
:10525000344802F029F9002812D104BC9046F0BD70
:10526000314B324A3F213248FDF746FA0122524281
:10527000304BEBE72C4B2D4A3F212D48FDF73CFAF4
:10528000FFF76CFF002849D12B4B0020002118604C
:105290005960244802F0D0F8DFE7012000214042A5
:1052A00000F080FF002001F0C5F9FFF757FF00284C
:1052B000EFD0002001F036FA002820D0A542E8DA2D
:1052C000661B002001F02EFA0200864200DC32004C
:1052D000002AE2D043465919002001F007FA0600DF
:1052E00001200021404200F05DFF002001F0A2F902
:1052F000AD19FCF7C5FB104B18605960DEE7FCF7F1
:10530000BFFB0D4B1E685F680C4A002392197B415E
:105310009942BED8D2D19042D0D9BAE70025CDE784
:1053200040420F006C18002070780010308500108B
:105330008C780010FFFFFF7FC80D002020A1070020
:1053400000487047D88500100048704784850010D9
:1053500010B50400154B1B78002B0ED0002C11D17A
:10536000134B144A5A80012301335B001BB2C02245
:10537000920013430E48038010BD11210B4800F02A
:1053800025F8EBE7052C0ED8A4000B4BE4580023BE
:10539000122BE9D8E25C002AE6D001335900044818
:1053A0004252DBB2F4E70020E6E7C046881800204E
:1053B0000013002009040000EC85001010B502481D
:1053C00000F034F810BDC0465C18002010B500296C
:1053D00001D000230AE0114B114A1F311148FDF79B
:1053E0008BF900240DE03732C25401334A1E9A4231
:1053F0000FD90F2B0DD85A080B4CA25CDC07F0D448
:105400000424224114000F222240092AEBDC30320E
:10541000EAE7C0180023037010BDC04604860010E0
:10542000548600100C8600105C18002070B588B0FF
:10543000040004AD002604960922002105A8FFF708
:1054400051FA00960922002101A8FFF74BFA4B23DD
:105450002B700D226946280001F0E6FF002304E0CE
:105460005A1D69468A5CE2540133072BF8DD08B007
:1054700070BD000003007F201840DB094000C01809
:105480004001014BC01870473413002010B5038B46
:105490003F333F229343022915D0124C2268C26049
:1054A000D31823609C0610D10F4C624063408024C7
:1054B0006401A3420FD88906114380231B061943B8
:1054C0004368196010BD5B00E7E7084B084A5421A8
:1054D0000848FDF711F9084B054A56210548FDF724
:1054E0000BF9C0464018002000001050E087001063
:1054F000BC8800101088001068880010F8B50500FE
:105500000E001400FFF7B6FF7F232B40EF098570D4
:105510007A427A4142700022C2700683C476012F1B
:105520000DD0DA0012498C46624482608268002104
:105530001160002B09D143600E4BC360F8BDDA0047
:105540000D498C4662448260F0E7012F09D0013B8F
:10555000DB000A4A9446634443602100FFF796FF4C
:10556000ECE7013BDB00064A944663444360F4E702
:105570008400105000011050800010500C0010509A
:105580000800105070B50C001500FFF773FF2A00DB
:10559000210000F00DF970BD10B5002804D10121E3
:1055A0000520FBF705FA10BDD521034B034A49003E
:1055B0000348FDF7A1F8C046B0880010DC88001051
:1055C0001088001010B5002805D10022002180208D
:1055D000FFF7D8FF10BDDB21024B034A4900034807
:1055E000FDF78AF8B0880010EC88001010880010D1
:1055F000024B80225202DA647047C04600201150EC
:1056000070B5041E26D100F0ADF8164D0C23AB6723
:10561000FF2215490520FBF71FFA402200211348FD
:10562000FFF760F9002240210020FFF767FF00220A
:1056300040218020FFF762FF01F05EFF01232B6411
:1056400080239B05EB649023094AEA502000FFF772
:10565000CFFF70BD8621074B074AFF310748FDF792
:105660004BF8C04600001150AD0400203413002058
:1056700010D00100B0880010D088001010880010F1
:105680000B785B0602D14B78052B00D070478A78E7
:10569000014B1A60FAE7C0460000115010B50B002C
:1056A00000280DD10A794979090211434905490DAC
:1056B000DA789207920F9878FFF720FF012010BD4B
:1056C000FC21034B034AFF310348FDF715F8C046A0
:1056D000B0880010FC8800101088001010B501F090
:1056E0000BFF10BD10B50400080011001A00002CBB
:1056F00003D1FFF747FF012010BD034B034A0449C4
:105700000448FCF7F9FFC046B08800100C8900106F
:105710000A0200001088001010B508004B0605D1E1
:10572000CB09012B0AD00222054B9A66FFF7A2FE95
:1057300080221201002101F0D7FE10BD0122F3E703
:105740000020115010B508004B0600D110BDFFF726
:1057500091FE0023C3700022014901F0C5FEF5E768
:10576000FFF7FFFF10B580235B040C4A13600C4A5F
:1057700013600C4B9A6880235B049343F9D10A4C65
:105780009C2200212000FFF7ADF880225201002169
:105790000648FFF7A7F80923636710BD00E0004043
:1057A00000F0004000C00040000011500000105008
:1057B00070B504000D001600837E002B17D1A68261
:1057C0000023E3820133A3762561200001F044FE2B
:1057D000002804D0094A902380218902D15020005A
:1057E00001F072FE002805D00123237770BD01F07F
:1057F00073FEE4E7200001F05FFEF7E700201150A0
:1058000070B5050000240CE063001B19DA00184B8A
:105810001B689B18002B2AD05B682800984701342E
:10582000E4B2144B1B78A34210D3134A002A0BD0C6
:10583000A342E9D8E31ADBB2002B18D15A00D218E0
:10584000D2000E4B9B18E5E72300F5E70C4C5322E2
:1058500000212000FFF746F8E01C1022FF21FFF78F
:1058600041F8200013302022FF21FFF73BF870BDE4
:10587000EC0D0020EC1800208D4E00109C8A0010CA
:105880001411002010B5FFF7BBFF00F0E7FD10BDBD
:1058900070B505000C001600C86800F0E9FDE3686B
:1058A000320001212800984770BD0000F0B5DE46A7
:1058B00057464E464546E0B583B001900139C8B21F
:1058C000FFF742FD002800D188E043789B46022B79
:1058D00000D085E0C5796B1101224A4C13401901B3
:1058E00023781027BB43AD112A4052010B432021DE
:1058F0008B4313432370060009368378C47824024F
:105900001C430419A64262D273780B2B09D00123E1
:1059100098467378042B6BD1A31B9BB29A46002543
:1059200023E0F37898463378F618F2E76F007F1992
:10593000FF00354B1B68DF1929E02B0020E0BA6817
:10594000324B9A4232D1D84630E02E482B004A469C
:105950003100133001F09AF94E442D4B1B78AB42C5
:10596000D0D200203DE00135EDB2294B1B78AB428F
:10597000F3D3284A002AE0D0AB42D7D8EB1ADBB2E7
:10598000002B37D15F00FB18DB00234FFF18002FDF
:1059900032D0524631000198BB68984781460828AA
:1059A000E1D98245DFD34346012BC8D00022904580
:1059B000CBD9B3789B18DBB21249C918C978FF2933
:1059C0001CD11049CB18DD700132D2B2EFE7134B76
:1059D000002B15D000E000BF012002E0002000E015
:1059E000002003B03CBC90469946A246AB46F0BDB1
:1059F0000020F6E70020F4E70020F2E70020F0E7BF
:105A00000120EEE714110020EC0D00204168001089
:105A1000EC1800208D4E00109C8A00100000000041
:105A200070B505000C00CB7888780F2B50D89A0001
:105A30002E498A589746FFF783FC02001223210063
:105A4000280000F0D1FC44E0294B002B42D000E0BC
:105A500000BF021E40D08178C3781B020B43210097
:105A6000280000F0C1FC34E0022B09D0214B002BB0
:105A700034D000E000BF0200002A05D1002028E059
:105A8000FFF762FC0200F7E79178D3781B020B4323
:105A90002100280000F0A8FC1BE0237961790902AD
:105AA0001943FFF755FC021E1AD003782100280085
:105AB00000F09AFC0DE0104B002B13D000E000BF6B
:105AC000021E11D003782100280000F08DFC00E0B8
:105AD000002070BD0020FCE70020FAE70020F8E776
