:020000041000EA
:1000000000B5324B212058609868022188439860DF
:10001000D860186158612E4B002199600221596106
:100020000121F02299502B49196001219960352056
:1000300000F044F80222904214D00621196600F024
:1000400034F8196E01211966002018661A6600F04E
:100050002CF8196E196E196E052000F02FF8012189
:100060000842F9D1002199601B49196000215960AB
:100070001A491B48016001219960EB211966A021F2
:10008000196600F012F800219960164914480160C1
:100090000121996001BC002800D000471248134993
:1000A000086003C880F30888084703B5996A0420EC
:1000B0000142FBD001200142F8D103BD02B5186610
:1000C0001866FFF7F2FF186E186E02BD00000240BE
:1000D000000000180000070000035F00212200005C
:1000E000F4000018222000A00001001008ED00E03C
:1000F00000000000000000000000000074B24E7A12
:1001000000200420F7010010C3010010C5010010F9
:10011000C1010010C1010010C1010010C101001097
:10012000C1010010C1010010C1010010C701001081
:10013000C1010010C1010010C9010010CB01001065
:10014000CD010010CD010010CD010010CD01001037
:10015000CD010010CD010010CD010010CD01001027
:10016000CD010010CD010010CD010010CD01001017
:10017000CD010010CD010010CD010010CD01001007
:10018000CD010010CD010010CD010010CD010010F7
:10019000CD010010CD010010CD010010CD010010E7
:1001A000CD010010CD010010CD010010CD010010D7
:1001B000CD010010CD010010CD010010CD010010C7
:1001C00000BE00BE00BE00BE00BE00BEEFF3058054
:1001D000103800BEF2EB88716C34001094340010BB
:1001E0003402001090A31AE700201F49086006C8D7
:1001F00081F3088810471D48006800282FD10DA4FE
:100200000ECC002902D000F012F8F9E71849194A7B
:10021000002000E001C19142FCD1174988471749ED
:1002200088471749884700BEFDE701C901C29A42C5
:10023000FBD3704794340010C00000202408002035
:10024000F83B00100000042000000420F83B0010E0
:10025000001004200010042000000000704709482E
:1002600001F014FF0047000008ED00E0000000D09E
:1002700028080020100C0020051F001001040010A9
:10028000F91F00105756000006005250ABB36053E0
:10029000D433001006005250861C0302E4330010D1
:1002A000060052505422A29DEC330010050052501B
:1002B000DE65F468F83B0010F8B5C0460448054B0D
:1002C00010B5834203D0044B002B00D0984710BDDB
:1002D00024080020240800200000000006480749E8
:1002E000091A8B10C90FC91810B5491003D0044B57
:1002F000002B00D0984710BD2408002024080020BF
:100300000000000010B5074C2378002B09D1FFF73F
:10031000D5FF054B002B02D0044800E000BF0123AD
:10032000237010BD28090020000000004033001099
:10033000054B10B5002B03D00449054800E000BF71
:10034000FFF7CCFF10BDC046000000002C090020C4
:10035000403300101F4A70B5136802210133136047
:10036000A4231D4A1D4DD150286802F0CDFC1C4A23
:100370001C4B02F0FDF802F02FF91B49041C02F09F
:1003800063FC002804D0201C174902F014FC041C54
:100390002C60201C02F080FC144B8000C558144BCC
:1003A0001868144B1A680023002A0BD002F052FC84
:1003B000291C041C02F019FC211C02F0FFFB02F0B6
:1003C0009DFC83B20C4A1068584000040B4B000C93
:1003D000186070BD5409002000000540E8090020A5
:1003E000CDCCCCCCCCCC0C400000B443B001002030
:1003F00050070020D40900202000054020100540AF
:10040000F0B5DE4657464E464546E0B585B002F0AB
:1004100055FE434803AB02AA01A900F0D1F8002819
:1004200003D13F493F4801F0EBFD039A029901983F
:1004300000F08AF80421022000F07AF90226A423B1
:10044000394D0420EE50394B39491E6000F006FA50
:100450000121042000F0E8F90024C8236C61EC615C
:100460002C626B621833AB61DF3B98466B61314B9A
:10047000314A1B6831499BB21360314801F0E4F9FD
:100480003100404600F054F941462D4801F0A0FAF1
:10049000192000F065F9D02780233F069B047B627A
:1004A0000F207B6100F05CF980210902250020000B
:1004B0001022BC468B46A246224B79629946204BBD
:1004C0000D3699690A42FCD199690A42FCD1196832
:1004D000C9B2002905D001281FD002281AD000284F
:1004E0000ED0002CEDD02900B14380290BD09029EB
:1004F000E7D161465F464F61494647460F60E0E7F6
:100500000D000120EDE761465F468F614946574681
:100510000F60D6E70C000020E5E70220E1E7C046C7
:1005200060E401004033001000000540A8200540B1
:10053000550300102000054020100540127A0000ED
:1005400000400340D4090020F0B583B005000E0040
:10055000140000F023F9002801D003B0F0BD154FBE
:1005600001223B0001210097053001F065FA3300BC
:100570002A0000940121104801F058FC21002800B5
:10058000714301F0B1FD04000C4B002200930221E5
:10059000042001F051FA23000022012100940520DB
:1005A00001F04AFA3B00022200210097062001F0E8
:1005B00043FAD2E7006CDC0200800240001BB70067
:1005C000F0B5DE469B46554B57469A46A0234E460D
:1005D00045465B00E0B59946060083B00091019264
:1005E00001235B429C46E1444B460F2B00D192E035
:1005F0004B4F4C4B072457449A455ED82100380096
:10060000614301F071FD86425BD0631E9846012C68
:1006100053D01D0065433800290001F065FD864276
:1006200053D0A31E9846022C55D02D1B290038000C
:1006300001F05AFD864250D0E31E9846032C52D05A
:100640002D1B2900380001F04FFD86424DD0231F9D
:100650009846042C4FD02D1B2900380001F044FD92
:1006600086424AD0631F9846052C4CD02D1B29008A
:10067000380001F039FD864247D0062C49D03800B9
:10068000E91F01F031FD06248642B7D10029B5D11A
:100690000123072498464A46234B01205343009ADE
:1006A0001360019B42461C605B461A6003B03CBC71
:1006B00090469946A246AB46F0BD1C4B9C46E24490
:1006C0008EE70029A1D1A046E5E70029E3D0A31ECB
:1006D0009846022CA9D1012490E70029DBD0E31E23
:1006E0009846032CACD1022488E70029D3D0231FDD
:1006F0009846042CAFD1032480E70029CBD0631F98
:100700009846052CB2D1042478E70029C3D0062CE2
:10071000B5D1052472E70020C8E7C04670F72E0067
:10072000B0710B0050F80C00001BB70020D1FFFF88
:10073000094A830094464022634410B51C68C000F7
:100740006240C02414408022520113431C60034BBA
:100750009C466044416010BD04C00140004001401F
:100760000123D0228340120693629361094A8300D9
:100770009446402263441968C0004A40C021114099
:100780008022520113431960034B9C4605236044A9
:100790004360704704C0014000400140024B1868AC
:1007A0008007C00F7047C04600C00640F8B5EFF3A1
:1007B000108772B60E4E3368002BFCD0BFF35F8FEC
:1007C000CB08C4180725A446C45C01230D40AB40E8
:1007D00018002040234208D1624623431370BFF320
:1007E0005F8F306087F31088F8BD100001F008FCBF
:1007F0002C0100D00021044B044ABFF35F8F02C3D9
:100800009342FAD17047C046000100D0800100D069
:10081000044A1078431CDBB2172B00D91023137045
:100820007047C0465407002001238340002904D0AC
:10083000034A1360034A13607047034A1360FBE7DF
:1008400080E200E000E100E080E100E0024B1030D7
:100850009B688000C058704700ED00E070B50D0047
:10086000EFF3108672B60F4A1368002BFCD0BFF36B
:100870005F8F0D4B10309B6884001B590B4A9342CD
:1008800003D09D4201D001F0D3FB074B9B681D5163
:10089000BFF35F8FBFF35F8F0022024B1A6086F3B6
:1008A000108870BD240100D000ED00E0CD010010E3
:1008B000F0B5DE4657464E464546E0B50C0083B0DF
:1008C000EFF3108972B6594A1368002BFCD0BFF3BE
:1008D0005F8F574B9A68030010339F00D559554AD4
:1008E0009046954232D0A54243D0534EAA1B2F2AA0
:1008F0002CD80122824092465146504A126811403B
:10090000019151464E4A1160BFF35F8FEFF30582AC
:100910009346002A33D101232A009A4393689C42CC
:1009200008D178E04B005B189B00F3189968A1424E
:100930002AD01A00062151560029F3DA019B002B18
:1009400019D052463F4B1A603C4B1A60384B9B689B
:10095000DD51BFF35F8FBFF35F8F0022334B1A600F
:1009600089F3108803B03CBC90469946A246AB463A
:10097000F0BD1500EAE75246314B1A60E6E79342B4
:10098000C9D001F055FBC6E706215956002922DBE4
:100990004A005018800034188046A0689860E079BA
:1009A000D871062020569871A0797F2824D8A48871
:1009B000F01A6405241544440019E0240005400D94
:1009C00024022043988052181F4B9200B6181A78C0
:1009D0001970B271B2E7594600290FD1FF319171F8
:1009E0001A49918018490A789A71194A9B1B5B41F0
:1009F0005A43120D0A70A1E71648E3E7164A174951
:100A0000D21A083A5002400D014399801449520805
:100A10000A43DA8092E70621515613000029B7DA1B
:100A20005A46002AEAD14546DCE7C046240100D0F8
:100A300000ED00E0CD0100105807002000E100E0CB
:100A400080E100E080E200E0090A002001BDFFFF34
:100A5000AAAA000001BD00009207002000F0FFFFDD
:100A600000F8FFFFF0B5EFF3058101240443EFF335
:100A7000108672B6214A1368002BFCD0BFF35F8F3B
:100A80001F4B05001F4AED1A6D416A43120D1E4DA2
:100A90008900AF6852B27F58A7421CD00621595630
:100AA00091421CD012215956914222D01E215956F2
:100AB000914220D02A2159560324914210D0134B41
:100AC00019781A708171BFF35F8F00220B4B1A6087
:100AD00086F31088F0BDAB680D4C5C50EFE7002446
:100AE0006100091989005B18FF21997109499980F2
:100AF000E5E70124F4E70224F2E7C046240100D030
:100B000058070020AAAA000000ED00E0090A002012
:100B1000CD01001001BDFFFF054B064A1360064AD8
:100B2000136053609360D3601361536193617047A6
:100B30008080808000E400E004E400E0024B9C46FA
:100B400061448900016070474000003410B5040022
:100B5000FFF75EFE01002000FFF7F0FFFF23237187
:100B6000BFF35F8F10BDC04610B50400FFF750FE05
:100B700001002000FFF7E2FFFF23A380BFF35F8F98
:100B800010BDC04683680B4810B58446614462447A
:100B9000090112019A18591854684B6801209C42A7
:100BA00001D802D00020C0B210BD12680B689A4272
:100BB000F9D8F7E7FFFFFF0F0A4B1968EFF3108032
:100BC00072B60A68002AFCD0BFF35F8F1B68BFF3C0
:100BD0005F8F00221A6080F3108840BF0020002140
:100BE0007047C046F0090020F8B5574645464E46C6
:100BF000DE46E0B599460CAB19780DAB1B780500C5
:100C000090469A460768002912D1BE7B002E45D037
:100C100074003B68A419033C1B195A783100BA735D
:100C2000002A00D1FA7300229A705A701A7003E0F9
:100C30000E004C006418033C2C4B00229C46AB6811
:100C400061449C464346090161440B604B464B603E
:100C50000A9B8B600B9BCB603B681B199A705A7088
:100C60001A707B7B9B46002B2CD032005946B8680B
:100C70007B6898473A68002817D05B4658465B0067
:100C80005B441419033BA070D118D35C002B00D037
:100C900063705B460E707B73B34514D030003CBC70
:100CA00090469946A246AB46F8BD5B465B005B4466
:100CB000033BD3189E701119125D002A00D05A70A0
:100CC0005B460B707E7342464B46287D00F038FB36
:100CD000041E06D05346002B03D13100286800F0D3
:100CE00075FD0E9B002BD9D01C70D7E7FFFFFF0FBF
:100CF000F0B5DE4657464E4645460023E0B58BB07C
:100D00000893674B8200D45800239B46099000F05B
:100D10009DFA626806000F00EFF3108572B6136843
:100D2000002BFCD0BFF35F8F23689C465B7B99460A
:100D3000002B00D169E0A2685A4B90464B441B013E
:100D4000984443461A685B6810001900801BB9413B
:100D5000002900DC63E0099800F0F2FA0023002289
:100D6000984600230692079300239A466368BFF3D0
:100D70005F8F5A461A6085F310885346002B08D1BE
:100D80000028C4D10BB03CBC90469946A246AB4665
:100D9000F0BD089B414618024B461843D047626895
:100DA00006000F00EFF3108572B61368002BFCD01D
:100DB000BFF35F8F002F50DB33003B4302D023692A
:100DC000002B61D12368DA7B002A07D051008A18F2
:100DD00019688C4649466244033A51709A7B002A4E
:100DE00001D14A469A734A46DA734B46E168013BA1
:100DF000CA5C0132CA545B4623616368BFF35F8FEC
:100E00005A461A6085F3108881E70023002298462D
:100E1000002306920793002300209A46A6E70029A4
:100E200002D1002800D096E70021604600F02CFC9B
:100E300043461A685B680692079343469B689A4646
:100E40004346DB689846E3684B44013B1B780893B4
:100E50001B0203432361002088E72369002BB1D0E4
:100E6000069A079B921BBB41002B15DB5946049148
:100E700001210391494602914146019151462000CA
:100E80000091FFF7B1FEB6E700F0E0F932003B0059
:100E900012184B41002BE9DA0122034B5242E5E7DD
:100EA000D8090020FFFFFF0FFFFFFF7F10B5144C94
:100EB0006368002B04D00A211248FFF73FFE10BDE3
:100EC0002300114A1021206800F0F8FA032000F0F6
:100ED000B1F9032000F09EFA03200C4900F0EAF972
:100EE000FFF796FC0A4B9C4603232375D0231B0671
:100EF0001B6860446375074B80006060DC60DAE764
:100F0000A0070020F0090020850B0010F10C001054
:100F100040000034D8090020F0B54E464546DE4674
:100F20005746E0B585B0019310AB1B78804603931C
:100F3000002300269946009243465A68EFF3108B2F
:100F400072B61368002BFCD0BFF35F8F43461D6859
:100F5000AC7B002C43D067002B683F19033FDB19A3
:100F60005A78AA73002A00D1EA7342469E705E70D6
:100F70001E709268494B94460099019AE3181B0130
:100F8000634419605A600E9A9A600F9ADA602B686F
:100F9000DB199E705E701E706B7B9A46002B68D0CA
:100FA00022001900A8686B6898472A68002853D067
:100FB000534650465B005344D719033BB870D118D1
:100FC000D35C002B00D07B7053460C706B73544580
:100FD00050D04346DB681B19013B187800E0002025
:100FE00043465B68BFF35F8F1E608BF31088002C55
:100FF00051D04B46002B08D10002204305B03CBC29
:1010000090469946A246AB46F0BD039B002B40D0CC
:101010000E9B00200F999847030004000D000B431E
:1010200037D000290ADA009A019B121BAB410092CB
:101030000193002B0ADB039B99467DE700F006F93C
:1010400024184D4100940195002DF4DA0123144C2D
:101050005B4200930194EEE753465B005344033B2D
:10106000D3189C70D119D25D002A00D05A70534613
:101070000B706C734346187D009A019B00F060F979
:1010800081460028A5D043462100186800F09EFB49
:101090009FE70020B2E701204042AFE7FFFFFF0FCC
:1010A000FFFFFF7FF0B5EFF30583CE46474680B5DF
:1010B00005000C0085B0002B12D02C4B0020596A83
:1010C0008C4203D89B6A0130AB4204D305B00CBC00
:1010D00090469946F0BD611A481E8141C8B2F5E7B5
:1010E000234E02930193234B0200009330000B0028
:1010F000FFF712FF031EE0DD20BF7168EFF31087DA
:1011000072B60A68002AFCD0BFF35F8FDAB2944649
:101110003068427B62451DD0FF221A40510089464B
:101120000168914488464946414403398978002939
:1011300013D0F1681B0A88464244013A1278DBB2A8
:101140009A420FD07368BFF35F8F00221A6087F353
:101150001088B2E7FF221A40EBE732699342F1D1DF
:101160003161EFE7614600F031FBEBE700400540FD
:10117000A0070020B90B0010F0B5EFF30582D646AA
:101180004F4646461000C0B51038EFF3108872B6CF
:10119000214C2368002BFCD0BFF35F8F0123190083
:1011A00081401E4D1F006963AA461D4D29601D4DDB
:1011B0002E78AC463500C5402F402B4215D0534603
:1011C000194D5F6A83005D59AF4218D3174A8E43A9
:1011D0009B5862461670BFF35F8F0022226088F32F
:1011E0001088002B06D0984704E0BFF35F8F27607C
:1011F00088F310881CBC90469946A246F0BD0C4B63
:1012000092009C46624413681360BFF35F8F002313
:10121000236088F31088EDE7280100D000400540E6
:101220003C7005400A0A0020F4090020440900200F
:10123000D03F054010B50100024A0348FFF7B6FA57
:1012400010BDC04674330010080A0020034B596AD1
:101250000A00986A596A8A42FAD1704700400540EC
:1012600070B504000D00124A536A1900966A536A59
:101270008B42FAD13000190024184D41AB4211D8ED
:101280000ED02B000A494A6A9A42FCD307D1084A79
:1012900002E0516A994202D1916AA142F9D370BD2C
:1012A000A642EED9012301246442E5175B42E9E737
:1012B0000040054070B504000D00EFF3108672B6D3
:1012C0001A4A1368002BFCD0BFF35F8F002D1BD090
:1012D0002000FFF7BBFA164981420AD02000FFF731
:1012E000BDFA01212000FFF79FFA0123A340114A14
:1012F0001360114BA400E550BFF35F8F00220B4B2E
:101300001A6086F3108870BD0B4BA200D5500122E5
:10131000A2400A4920000B7893430B700449FFF761
:10132000C7FA00212000FFF77FFAE5E7280100D087
:101330007911001038600540440900200A0A002095
:10134000F0B54F46D6464646C0B507002C4C616AFC
:101350000D00A66A616AA942FAD18B4208D805D06D
:1013600001201CBC90469946A246F0BDB242F7D976
:10137000EFF3108972B6234801680029FCD0BFF34F
:101380005F8F01252049BD408C4609781C4C0E001A
:101390002E438846F1B28A46614650460870391D90
:1013A0001A48890065630A51B9000B50216A002070
:1013B000294219D0616A0800A66A616A8142FAD19D
:1013C0008B4219D801D1B24216D8C24516D00C4B67
:1013D0001F201D625D6301230740BB400C4A1E387D
:1013E0001360634642461A70BFF35F8F0022054BBD
:1013F0001A6089F31088B4E70020F5E70120F3E7CD
:1014000000400540280100D00A0A0020F40900200D
:1014100080E200E010B5EFF3108472B60A490B6861
:10142000002BFCD0BFF35F8F01238340074A08489D
:10143000136202789A430270BFF35F8F00230B6040
:1014400084F3108810BDC046280100D0004005403C
:101450000A0A002070B505000E001400002924D0EF
:10146000002A24D080686B689847296800280ED02D
:1014700063001B197200033B9219CB18033A9E704C
:1014800088188A5C002A14D1047030000EE07300C2
:101490009B196200033B1219CB18033A9C70881801
:1014A0008A5C002A00D05A700670200070BD0800C7
:1014B000FCE75A7004703000F8E7C04630B583602E
:1014C0000023CCB243730133047342608373C4734B
:1014D0000D000068012C06D9421C0133DBB21370E9
:1014E00003329C42F9D1FF2129404B0059180023B7
:1014F00040180338437030BDF8B5CE464746060065
:101500000C0080B5002907D04D0003686D18033D1D
:101510005A195778002F04D120000CBC90469946E8
:10152000F8BD7900C919033988464344597889467A
:1015300000215970517073683A0021008068984703
:101540003368002814D042469A18947059195B5D8C
:10155000002B00D053700F70270049463000FFF772
:10156000CBFF390002003000FFF774FF0400D3E71F
:10157000424641465D19AF709A185B5C002B00D063
:101580006B701470E9E7C046F0B557464546DE4635
:101590004E46E0B50D006B0001685B19DF1E0400CC
:1015A000C85D83B00192CA19002850D043001B18AF
:1015B000033BCB185E78B446002E1AD1019E002E54
:1015C00042D0E67B002E04D073009B19CB18033B5E
:1015D0005D70A37B002B00D1A573E57300282FD18C
:1015E0000023537003B03CBC90469946A246AB46DC
:1015F000F0BD72006244033A89184A78904600228E
:101600004A7091465A70010032002000FFF722FF15
:1016100043468246002B07D05B0021684344033BCE
:10162000CB185A78002A16D1424651462000FFF7BF
:1016300011FF2168019BCA19002BC2D10028CFD00D
:1016400043001B18033BCB1800219970C8E7019B8E
:10165000002BB6D1C4E75000801803380918487829
:10166000834648464870587041462000FFF7F2FE16
:10167000594680462000FFF73FFF41460200200008
:10168000FFF7E8FE8046CFE7F0B54E464546DE461A
:101690005746E0B5467B040075000068AD19033D70
:1016A00083B00191415D4219002952D04B005B1873
:1016B000033BC3185F78BC46002F1CD1019D002D51
:1016C00044D0E57B002D04D06B005B19C318033BAD
:1016D0005E70A37B002B00D1A673E673002931D185
:1016E000002330005370617303B03CBC90469946B0
:1016F000A246AB46F0BD7A006244033A80184278B5
:1017000093460022427091465A7020003A00FFF73B
:10171000A1FE5B468046002B07D05B0021685B443E
:10172000033BCB185A78002A17D15A46414620006D
:10173000FFF790FE019B010020684219002BC0D1E9
:101740000029CDD04B005B18033BC31800209870D4
:10175000C6E7019B002BB4D1C2E7500080180338C4
:101760000918487882464846487058705946200003
:10177000FFF770FE53468346002B07D05B002168BD
:101780005344033BCB185A78002A06D15946524697
:101790002000FFF75FFE8346C7E75000801803383C
:1017A000091848464F784870587051462000FFF796
:1017B00051FE390081462000FFF79EFE4946020097
:1017C0002000FFF747FE8246E0E7C04670B5040000
:1017D00000292CD0437B8B422ED00568480040184E
:1017E000033828188278002A21D053009B18033B25
:1017F000EA5CEE188A4202D11BE0002A08D05300AE
:101800009B18033BEB185A788A42F6D142785A70FB
:1018100000230122837043702000FFF7B5FE617B37
:1018200002002000FFF716FE6073012000E0002098
:1018300070BD43783370EBE701221900FFF7A4FE77
:1018400060730120F4E7C046F8B5CE464746040071
:1018500080B506200D0000F0E3FA061E52D0524B70
:101860005249E3185A4253418022D20394465B42C4
:1018700013404F4A634413604E4A136018008A684D
:101880009043FBD1484B8021E3185A4253414A4AC6
:101890005B0049000620995200F0C2FA2900C000FE
:1018A00000F022FCC30932D1402290463F3A6262E6
:1018B000A362266BF30736D427008025E36A002352
:1018C0002C376D013D432B600620266300F0A8FAFB
:1018D0004146800000F008FC236B06009846DB07B9
:1018E0003BD46022E36A5A406E2313402B60434688
:1018F0002363802310229B013B431A602F4B2363F9
:101900000323A36430000CBC90469946F8BD2C4AD2
:1019100093423FD900232B4A90462B4A6262A3622E
:10192000266BF307C8D52200C02330329B01134336
:10193000224A06201A60656AA36AAD01ED1800F01C
:101940006FFA224900F0D0FBAD020100280000F040
:10195000CBFB0021FFF784FCAEE72200C02330322E
:101960009B011343154A06201A60636AA26A9B0111
:101970009946914400F054FA4B4614499B0299460B
:1019800000F0B2FB0100484600F0AEFB0021FFF77B
:1019900067FCA6E77F2210409A019046013040087C
:1019A0001A008044030082E70080FCBF00C00040B2
:1019B00000E0004000F000400C0A0020010300009D
:1019C000FEFF0000C0FF3F00FFFF00004E0E0000C2
:1019D000F8B50C00611E8C41066B05002401F3076D
:1019E0000BD41023E96A2A004C401C4080232C327F
:1019F0005B0113431C602E63F8BD0200C02330322C
:101A00009B0113430A4A1A60476A836ABF01062092
:101A1000FF1800F005FA074900F066FBBF0201005D
:101A2000380000F061FB0021FFF71AFCD9E7C0463F
:101A3000010300004E0E0000F0B54546DE46574655
:101A40004E46E0B583B001920C9A050088469A4252
:101A500000D976E01A0E93461E0230000023594644
:101A60000C9A00F07FFB384B6C009C466419A40074
:101A7000644463680700834200D260602B1FDBB2BE
:101A80009946012B37D9C02380229B0123431201A1
:101A90001A602E4BAD0059599A46002907D0586953
:101AA00000F022FB431C5800C0180338FDD2019AF5
:101AB000236852015340E0221A4080235B012343F4
:101AC0001A604A46012A2FD9802380229B01234392
:101AD00012011A60300000233A005946676000F096
:101AE00041FB53465851012003B03CBC90469946F7
:101AF000A246AB46F0BD4346012BC4D1C02303220E
:101B00009B0123431A60023AA3681A42FCD0019A4F
:101B1000236852015A40E0231A4080235B0123438B
:101B20001A600A4AAD00924642462168514003229B
:101B30000A401A60012243469A40A3681A42FCD028
:101B4000C2E70020D0E7C0460080004060090020C6
:101B500030B50C2083B000F0B9F9FEF71FFE002865
:101B60000ED0994B994A1A605A609A60DA601A61ED
:101B70005A619A61DA611A62954A5A6203B030BDBD
:101B8000944CA06700F0AAF90122934B1A60636C91
:101B9000012BFCD10322914B1A608E4A936B012BCF
:101BA000FCD1013301218E4A8E480093043300F0AA
:101BB0003DF905238C4A009301218C4800F036F949
:101BC0008B4B5A68FF2A02D8802252005A6080222A
:101BD0007D4C824B21691201854D1A60002907D086
:101BE000606900F081FA431C5800C0180338FDD228
:101BF000E0217F4B02201A681140802252012A43C3
:101C000011601968484003210140116004219A685D
:101C10001142FCD08022802192012A4309011160E7
:101C2000802252005A60734B2361734B5968FF291D
:101C300000D85A6003227048674B01211A600200E5
:101C400093681942FCD0E02513681D4080235B0196
:101C500003431D6012684A400321114019600221AC
:101C6000654A93681942FCD0802380219B0103437D
:101C7000090119608021614B490051606361604B2B
:101C80005A68FF2A00D8596080225E4BE169120130
:101C90005B4D1A60002907D0606900F025FA431CEB
:101CA0005800C0180338FDD2E02255490B681A408D
:101CB00080235B012B431A60802380229B012B43EE
:101CC00012011A608022414B52004A60E3614E4B80
:101CD0005968FF2900D85A6080224C4B216A1201B2
:101CE000494D1A60002907D0606900F0FDF9431CD6
:101CF0005800C0180338FDD2E02243490B681A404F
:101D000080235B012B431A60802380229B012B439D
:101D100012011A60802380225B004B602B4BD202A1
:101D200023623B4B5968914200D25A608022394B62
:101D3000616A1201364D1A60002907D0606900F00F
:101D4000D3F9431C5800C0180338FDD2E0223049B3
:101D50000B681A4080235B012B431A60802380228A
:101D60009B012B4312011A608023DB024B60184B4E
:101D70006362294B5A68FF2A02D8802252005A60B7
:101D80008022264BA1691201234D1A60002907D039
:101D9000606900F0A9F9431C5800C0180338FDD24F
:101DA000E0221D490B681A4080235B012B431A6017
:101DB000802380229B012B4312011A6080235B0049
:101DC0004B600E4BA361D9E660090020006CDC0279
:101DD0001BB70000008000403CB0004030B0004025
:101DE000002F685900800240008C864700C00240E6
:101DF00030800040001BB7003C8000404059730712
:101E00005480004054B000406080004060B000400A
:101E10006C8000406CB000404880004048B00040FA
:101E2000014B8000C058704760090020F8B50400DD
:101E3000214817001D000E0000F056F9010038007F
:101E400000F052F9069A2B04120313432268002A69
:101E500021DB1A4AA21851424A41802149018C468D
:101E600052420A40164962440A6016490A601649FD
:101E700017008D68AF43FBD1C021221D890111439A
:101E800021222660A0600A602268002AFCDAE36052
:101E900008230B60F8BD3F2221680A40B242D8D126
:101EA000A2681205120D8242D3D1EE21E268C90266
:101EB0000A409A42CDD1EDE7001BB7000040FDBFBC
:101EC00000E0004000F0004000C000408023024AD3
:101ED0009B000343D362704700800540AA23064A53
:101EE0001B0113602F230549D360054B196053680C
:101EF000002BFCDA7047C0460040024000B0FA00F8
:101F0000006002402C4B2D4A70B51A602C4A2D4BB4
:101F10002D491A6010008B689843FBD12B4C2C4B39
:101F20009C4209D2013B1D1BAD080135AD002D19A6
:101F300008CC9847AC42FBD1FFF70AFE254A214B5B
:101F40001A60214A9368DB018033FBD14022224B87
:101F5000224C234D9A675A671A67DA66AC4208D258
:101F600023682000002B21D00834FEF7FDFDAC4291
:101F7000F6D31C4C1C4DA168C022280000F042FF83
:101F8000A560FEF737FCFEF7C7FDFEF78FFF174C85
:101F9000174B9C4209D2013B1D1BAD080135AD001A
:101FA0002D1908CC9847A542FBD170BD0834FEF727
:101FB000CDFDAC42D4D3DCE700E00040BFCDFBFE5A
:101FC000FE7F3C0000F0004000C0004010080020F0
:101FD00020080020FFFFFF0100F00140080800205A
:101FE0001008002000ED00E0000000202008002084
:101FF0002408002000BEFDE710B5FFF7FBFFC04638
:102000000FB400B5084883B001F022F8049B002B00
:1020100007D005A91800019100F018F8034801F055
:1020200017F80120FFF7E6FF98330010A8330010DF
:1020300010B50148FFF7E4FFAC33001010B50028DD
:1020400000D110BD00F0B8FFFBE7C04610B5094A4B
:102050000300146884B0002C08D0012200910648C7
:10206000524203A9A047012004B010BD00F0F0FFC8
:102070000020F9E7D00900203D200010014804218C
:10208000014B1847D0070020AD200010142310B5D5
:102090000100188804331B88984710BD162310B51B
:1020A0000100188802331B88984710BDF0B5C6465A
:1020B00000B5002916D014230400012598461827DE
:1020C000890046184346216818883B88984701C410
:1020D000431E984140420540A642F3D1280004BC6B
:1020E0009046F0BD0125F9E7114A936F9B0813D282
:1020F00010665166002905D0FFE7FFE7FFE7516F43
:10210000106F704704B5002801D00020C04301F0D3
:1021100007F9002104BDC046F0B5146E556E576F27
:10212000166FFFF7E5FF1466556657671667F0BD33
:10213000000000D094464A4A926F9208624601D24B
:1021400028E0C046F0B5464E346E756E776F366F38
:1021500000F020F89446424A1466556657671667A1
:102160006246F0BD94463E4A926F9208624601D2A2
:1021700054E0C046F0B53A4E346E756E776F366FE8
:1021800000F04CF89446364A146655665767166751
:102190006246F0BD002B24DB11D000293EDA00B5E9
:1021A000C943404200D1013100F038F8C9434042F0
:1021B00000D10131DB43524200D1013300BD002A7E
:1021C000EBD1002801D1002905D00020C90FC90793
:1021D00001D1C043410800B501F09AF80022002364
:1021E00000BD00B500290ADBDB43524200D10133B8
:1021F00000F014F8C943404200D1013100BDC94389
:10220000404200D10131DB43524200D1013300F0A2
:1022100005F8DB43524200D1013300BD002923D130
:10222000002B18D1002A0CD0BC460D4F38667A66B8
:1022300000210023FFE7FFE7FFE77A6F386F67466B
:102240007047002801D00748010000B501F060F890
:102250000022002300BD02000B0000200021704777
:10226000000000D0FFFFFFFF002B00D0BFE0130CE9
:1022700028D1002AE7D080B4114F39667A66FFE78B
:10228000FFE730B4040C7B6F396F1B0423433B66BC
:102290007A66FFE7FFE7FFE7C04684B27B6F3D6FDA
:1022A0001B0423433B667A66FFE7FFE7C046002333
:1022B0002C042D0C7A6F386F00196941B0BC70473F
:1022C000000000D0F0B594460025140E01D1120292
:1022D0000835140F01D112010435940F01D1920079
:1022E0000235D40F01D152000135D40B0134254FF2
:1022F0007C66254C3C660E0C93B2FFE7FFE7FFE7D8
:102300003C6F6643360C7703BE467343DF0B5B04BA
:10231000C01AB941130C7343DB18C91ACE086643BF
:10232000360CB64493B273431F0F1B01C01AB94158
:10233000130C73431F0B1B05C01AB941860D8F0286
:102340003E436643360C092D24DB520A7243801A41
:102350007703460A6643360C16235B1BDE40DF40DC
:10236000BF1964466643821B70460435063301007C
:10237000D940A840C01900D30131A24206D200239F
:10238000F0BD0000000000D0FFFFFFFF121B013076
:10239000F3D3F1E709277F1BFE406446A2B27243E4
:1023A000801A00D20139220C7243130C1204821AD3
:1023B00099410B007046043513370100F940A840DD
:1023C000801900D30131002B02D1A2420AD2F0BD04
:1023D000013000D30131121BFAD2013BF8D1A242E5
:1023E00000D2F0BD013000D30131121BF7E7F0B588
:1023F0001C0C00D080E00CB400251C0A04D11B0288
:10240000160E3343120208351C0B04D11B01160FA4
:102410003343120104359C0B04D19B00960F3343C8
:1024200092000235DC0B02D192185B4101351C0091
:10243000971864410134464F7C66464C3C660E0C4E
:10244000FFE7FFE7FFE7C0463C6F6643360C7703C4
:10245000BE4697B27743C01B00D20139C01B00D2E1
:1024600001399FB27743C91BC91B170C77437E0400
:10247000FF0B801BB941CE086643360C0C2D33DBB5
:10248000B644120B1F053A431B0B97B27743C01B90
:1024900000D201399FB27743C91B170C77433E0422
:1024A0003F0C801BB941860D8F023E4366432927AE
:1024B0007F1BFE400C3D7746AF40BF1930BCA2B237
:1024C000ABB272437343801A9941220C7243130CCE
:1024D0001204801A994102000B000137001BA94128
:1024E000F9D2781E0021F0BD0C277F1BFE407746F5
:1024F0007F0BAF40FF19E0E700245D1C07D0144FAD
:102500007D663966FFE7FFE7FFE7FFE73C6F95B2BF
:102510009EB265436643401BB141150C1E0C6543DA
:10252000664336042F0C3E432D04401BB1419942B3
:1025300004D202000B0020000021F0BD01D1904226
:10254000F7D3801A994101349942F2D3F6E700009B
:10255000000000D0FFFFFFFF48404140484018B452
:102560001B4B5B68FC46019308BD04DFE3260010AB
:1025700018B4174B1B68FC46019308BD00DFED261D
:1025800000109446134A926F920809D2624618B41A
:102590000F4BDB68FC46019308BD0CDFA52900103A
:1025A0000C4AF0B5146E556E576F166F6246FFF702
:1025B000EEFF084A1466556657671667F0BD18B4F3
:1025C000034B9B68FC46019308BD08DF49280010B7
:1025D000100A0020000000D018B4044BDB6FFC464A
:1025E000019308BD7CDF552B00100000100A00206D
:1025F000132370B51D78012D15D010DD2748FFF786
:102600004DFD274C01008022200000F0FBFB022D35
:1026100006D02448FFF73AFD234B186070BD204CCC
:10262000224AA264F5E72E001D4C204AA3085B4213
:102630001E401D422FD0330022602020B1006118BF
:10264000801B0A604A608A60CA600A614A618A61C6
:10265000CA610A624A628A62CA620A634A638A6318
:10266000CA630A644A648A64CA640A654A658A65F8
:10267000CA650A664A668A66CA660A674A67400881
:10268000102803D18A67CA67A264C2E71E339B0081
:10269000E250A264BDE70023CFE7C04653440000E8
:1026A000100A00204C330000EC090020B126001075
:1026B00007B5604601880A0A0230DF2AFAD1C9B29A
:1026C000820804D3028840880004104300E00068B8
:1026D000014A5050039007BD100A00200FB403BCFC
:1026E0000CBCF0B50124E407634000E0F0B50C0D2C
:1026F000CF0F661E3605891B640503D3C9434042CC
:1027000000D30131640D03D0661CF60A07D0E41B28
:1027100000207F00791C89078912803C24031D0D4D
:10272000DF0F6E1E36059B1B6D0503D3DB43524244
:1027300000D301336D0D03D06E1CF60A07D0ED1BDC
:1027400000227F007B1C9B079B12803D2D032F1BCB
:10275000661B58D4A446202E46DA20371400BC400D
:102760001D00BD40F24033412A4380185941CB0F30
:1027700005D0C943C04300226442504151416246E2
:102780004D0D28D10D0D07D100281FD0241940412F
:102790004941013A0D0DF9D0640006D3013000D350
:1027A0000131002C01D140084000013A0BD4941CA7
:1027B000E40A04D112051144DB071944F0BDD9071E
:1027C000204B194300E0D9070020F0BD0029DDD1DE
:1027D000002CDBD1F0BD0132C6074008CD072843ED
:1027E0004908002EE1D0D9E73C2E29DA203E4037B7
:1027F0001400BC4000D00124F24014431A00BB4036
:102800001C43D317ACE7AC46202F08DA203604006F
:10281000B4400D00B540F84039412843A5E73C2FAE
:102820000CDA203F40360400B44000D00124F840C8
:1028300004430800B1400C43C117EAE71000190037
:10284000002494E70000F07FF0B50C0D661E3605FD
:10285000891BE60A6405640D02D0651CED0A04D0EC
:10286000002001210905803C2403A4461C0D671E9D
:102870003F05DB1BE70A6405640D02D0651CED0A09
:1028800004D0002201231B05803C240377406444CC
:1028900097B484B296B27443070C7E43150C6F4311
:1028A00080B26843361802D3012000043F18300478
:1028B000350C00197D41844688B29AB250430C0C05
:1028C00062431F0C7C438EB27E43921902D30126D1
:1028D0003604A4191604170C3618674101BC81B2DE
:1028E0009AB25143040C62431B0C5C4380B25843C0
:1028F000121802D30120000424181004130C4018ED
:1029000063412D185E410020474106BC88B293B256
:1029100058430C0C6343120C544389B251435B1867
:1029200002D301210904641819041A0C0918624120
:102930006D1856410020474118BCF902720D114331
:10294000F0026A0D1043ED020A0D03D16D194041EA
:102950004941013B124E9B1B7600B3420ED26D00E3
:1029600007D30130002671416646354301D1400846
:1029700040001B05C918E4072144F0BD0BDA013300
:1029800006D1013004D101314F0D01D04908F2E7E1
:10299000E1070020F0BD013631050020EBE7000023
:1029A000FF030000F0B51C0D671E3F05DB1BE70AA7
:1029B0006405640D02D0661CF60A04D000220123CF
:1029C0001B05803C2403D0252D060026F6432E66E9
:1029D0001E096E66CE0FF619B44649004F0D02D09F
:1029E0007E1CF60A03D000200021403F3F033E1B1F
:1029F000B600B444013F7F05C91B49082E6F01365C
:102A000076089C02950D25437543ED137543AD1370
:102A100001356D10F603761B0CB4CC02450D2C432A
:102A2000A2B2B3B25A43270C7B43350C6F43A4B216
:102A30006C431B1902D3012424043F191C041D0CF0
:102A4000A4187D4124196D41009A91B2ACB2614342
:102A5000170C7C432B0C5F4392B25A43A41802D349
:102A600001221204BF182204230C52187B41019C3E
:102A70006C431B19520ED9010A434401A01A81B2BA
:102A8000B2B2514303145A43360C734387B27743AF
:102A9000D617D21900277E4136049B191704160C4D
:102AA0007F185E417316ED18F301002680337541DF
:102AB000A90F06D16400690AE8055B0A184309D228
:102AC0002FE00422944480337541A90AA8059B0A8B
:102AD000184326D3404149412404009A019B0D002C
:102AE0005543641B4343E41A95B286B27543170CF1
:102AF0007E43030C5F4392B25A43B61802D30122BD
:102B00001204BF183204330C52197B4152429C41CB
:102B1000002C02D40022013051414008CA07104362
:102B2000490802B06246D7079210084BD218084BEA
:102B30009A4203D212058918C919F0BD0020002A53
:102B400001DC3900F0BD01331905F5E7FD03000094
:102B5000FE0700004A00520D144BD21A13DDFF2A63
:102B60001EDAD205CB0FDB071A43C300400F09035F
:102B7000490A084310435B0001D301D0013070477C
:102B80004308FBD2704702D0C80FC00770470A0342
:102B900012130132F8D1420F072AF5D1012200E0C9
:102BA000FF22C80F00028018C00570478003000094
:102BB0004840414048400E4B5B6818470C4B1B682F
:102BC00018470C4A936F9B0802D2094BDB681847E1
:102BD000F0B5146E556E576F166FFFF7F6FF054A86
:102BE0001466556657671667F0BD014B9B6818471A
:102BF000100B0020000000D007B54840414048407D
:102C000001E0C04607B54200120E03D0FF2A03D1EF
:102C1000420218D8C00DC0054A00120E03D0FF2A88
:102C200003D14A020FD8C90DC9050122414005D47C
:102C3000414001D5814207BD884207BD0143491883
:102C400001D0C043001807BD00B5FFF7D5FF804194
:102C500000BD0000C10FC90700D54042002817D0B1
:102C6000F44603B40B4B1B68984706BC81409E3862
:102C70004042803107D20B0607D04900490AC005FF
:102C80001043084360470130F8E7490A8902F5E735
:102C900070470000EC09002041000A0E80231B064B
:102CA0007E2A0BDD9E3A0BDAC1174002400818431A
:102CB0005242D040490001314843704700207047DC
:102CC000C00FC01801387047C0420DD300B5400096
:102CD0004008002100F012F8002801D4404200BD55
:102CE0008020000600BD0000034BDB69FC4618474E
:102CF0001CDFAD2D00100000100B0020014B5B6AA3
:102D000018470000100B0020034BDB6FFC461847F0
:102D10007CDFC52D00100000100B0020132310B520
:102D200012481C78FFF7BAF90100012C0AD003DD24
:102D300080220F4800F066F80E48FFF7A7F90E4B07
:102D4000186010BD0A4C5422200000F05BF80B4BB9
:102D50006365A365E36523666366A366E36623672D
:102D60006367A367E3672362E361E5E75346000017
:102D7000100B00204C330000EC090020812D0010C6
:102D800007B5604601880A0A0230DF2AFAD1C9B2C3
:102D9000820804D3028840880004104300E00068E1
:102DA000014A5050039007BD100B00200021C215AE
:102DB0008032803201D0024A104700207047000064
:102DC000CD2A0000C30FDB0741000A0E07D0FF2AFF
:102DD00008D00909054A89181943400770471900A6
:102DE000002070470249C918FAE7000000000038C7
:102DF0000000F07F01480421014B1847E007002044
:102E0000AD200010014B5B6818470000E007002070
:102E1000030010B508001B681100984710BDC0469C
:102E2000F8B54746CE4680B5437D07000D00160035
:102E3000002B37D000240020002A1EDD4B1E9846B0
:102E40001B4B9946002C2BD043461B5D0D3B5A4231
:102E50005341DBB22A5D0A2A13D00134A642F1DCC9
:102E6000864203DD311A3B6828189847AD19013DA9
:102E70002B780D3B5A4253413B750CBC904699460A
:102E8000F8BD002BE9D1A04203DA211A3B682818CB
:102E90009847484602213B68013498472000DDE707
:102EA0003B7DD7E70368110028009847E5E7C04657
:102EB00028340010F0B5DE4657464E464546E0B58C
:102EC00085B017001C0006000D00FEF7BFF90023B7
:102ED000324A12184B41002B5BDB314908008A460D
:102EE00000F026FA01906B1C03D1300000F0D2F9FB
:102EF0000500002C28D12B4B98462B4B1C68002C2E
:102F000015D0002F23D1294F02E02469002C0ED0C8
:102F10002368002BF9D03B68002B01D0A342F4D1E9
:102F200020002A003100C0472469002CF0D1019B09
:102F3000002B2AD1681E8541E8B205B03CBC904602
:102F40009946A246AB46F0BD194B9846D5E7174BBC
:102F5000994602ABDF1D0A239B4602E02469002C40
:102F6000E5D02368002BF9D04B461B68002B01D01D
:102F7000A342F3D12A0031002000C0475B46012262
:102F8000390020003B70C047E8E7504600F0B8F930
:102F9000D0E70122074B52429FE7C04640420F0054
:102FA00008080020212E0010C8090020CC090020AC
:102FB000112E0010FFFFFF7FF0B5CE46474680B5CB
:102FC00083B06B460500DE1D3070FEF73FF900232D
:102FD0001A4A12184B41002B2CDB1949080088466D
:102FE00000F0A6F9174B07001C68002C16D0164BF2
:102FF000994602E02469002C10D02368002BF9D0F8
:103000004B461B68002B01D0A342F3D120000122C4
:103010003100FFF705FF2469002CEED1002F05D108
:10302000280003B00CBC90469946F0BD404600F025
:1030300067F9F5E70122054B5242CEE740420F0007
:1030400008080020C8090020CC090020FFFFFF7FEE
:1030500070B5040000F01EF90023010005000122F4
:103060002000FFF727FF084B1C68002C06D0636880
:10307000002B05D098472469002CF8D1280070BD9A
:103080002469002CF3D1F9E7C80900200A4A136823
:10309000002B05D10CE01A001B691032002B07D061
:1030A0009842F8D1002902D1036913600161704789
:1030B0000029FCD01060FAE7C809002010B500F024
:1030C000C5F8012010BDC046F0B50D1E15DD0E4B34
:1030D0000D271A680D4B4519D31859424B410C491D
:1030E0005B005E5E20210478A64207D093691942F6
:1030F000FCD101301460A842F5D1F0BD93691942AA
:10310000FCD11760F2E7C046040A00200080FCBF33
:103110000C0A002030B50500002926DD002010240F
:103120001B4B013D1A6893691C4219D10130936908
:103130001C42FCD113682B548142F4D1154B1B68FF
:10314000002B0CD050239363516B183B34320B404F
:103150001100802252010A431360002815D030BDAF
:103160000C4B1B68002BEDD1F7E70A4B1B68002BBB
:103170000BD050223821064B1B689A635A6B3433AC
:103180001140802252011343196003204042E6E7B8
:10319000040A002058090020064B10B51B68002BBC
:1031A00006D00021044A12689163044A10689847C7
:1031B00010BDC04658090020040A00205C09002008
:1031C0001D4BF0B51A68C64698461C4B0E00D31826
:1031D00059424B411A4F14331C00050000B53B689F
:1031E000002807D0002B11D0164B3D601E6004BC98
:1031F0009046F0BD002BF7D0906300212000FDF732
:1032000013FB20001049FDF753FBEDE720000E49AA
:10321000FDF724FB01212000FDF706FB4346502269
:1032200038211B689A635A6B343311408022520153
:1032300013431960D8E7C046040A00200080FCBF91
:10324000580900205C090020993100100C4B10B582
:103250001B780C4B0C4C1B780C4B0221002023607C
:10326000FDF766FA02210120FDF762FAE1212068EC
:103270004902FEF7E9FA01210548FFF707FF10BDF3
:103280008C34001090340010040A002000400340E9
:10329000F007002010B5830727D00378002B26D035
:1032A0000300032102E01A78002A1CD001330B42EC
:1032B000F9D119680F4A104C8A188A4322420FD15B
:1032C000043319680B4A8A188A43224208D104330E
:1032D0001968084A8A188A432242F1D000E0013373
:1032E0001A78002AFBD1181A10BD0300E1E700206C
:1032F000FAE7C046FFFEFEFE80808080F8B5C0463B
:1033000001B40248844601BC604700BF710100203F
:1033100001B40248844601BC604700BF9901002007
:1033200001B40248844601BC604700BF99010020F7
:1033300001B40248844601BC604700BFC1000020C0
:1033400053797374656D20636C6F636B206F6620B7
:103350002575206B487A2063616E6E6F74206265FC
:103360002065786163746C7920616368696576654E
:1033700064000000486172647761726520616C616D
:10338000726D20256420616C726561647920636CC4
:1033900061696D65640000000A2A2A2A2050414EA6
:1033A0004943202A2A2A0A000A0000004861726460
:1033B000206173736572740052656C65617365009A
:1033C000626F6F74325F77323571303830000000D1
:1033D000302E3100312E352E310000007069636FC0
:1033E000000000007069636F73796E004A756E208B
:1033F000313120323032340006005250BBFF3CB62F
:10340000DC330010060052503ABCA911D033001032
:1034100006005250E182887FC033001006005250EF
:10342000D3F07542B83300100D0A000055415254D4
:1034300020737464696E00005541525420737464A3
:103440006F7574005541525420737464696E202F57
:10345000207374646F7574000600525053B4F4A165
:0C3460004434001008005250920000009C
:10346C00AC020010A002001094020010F8330010FF
:10347C008802001004340010103400101C340010AA
:08348C005834001064340010F4
:10349400F0B5C6461E0000B5040015000368EFF33E
:1034A400108272B619680029FCD0BFF35F8F042321
:1034B400E356002B36DB2168BFF35F8F00200860E2
:1034C40082F31088D02200271206D7579F4203D1D7
:1034D400002004BC9046F0BD002398460CE022680E
:1034E400BFF35F8F4146116083F3108828003100D9
:1034F40000F03EF80028EBD12268EFF3108372B697
:1035040011680029FCD0BFF35F8F22797F2AE6D9A6
:1035140022682771BFF35F8F0021116083F3108845
:103524000120D6E7D0231B061B6823712368BFF351
:103534005F8F0021196082F310880120C9E7C0461B
:103544000268EFF3108172B61368002BFCD0BFF34E
:103554005F8FFF2303710368BFF35F8F00221A603C
:1035640081F3108840BF70477047C04600000000D8
:1035740001B40248844601BC604700BFA510001096
:10358400000080BFE9937EBFD2277DBFBCBB7BBF59
:10359400A54F7ABF8EE378BF777777BF610B76BF8D
:1035A4004A9F74BF333373BF1CC771BF065B70BFC0
:1035B400EFEE6EBFD8826DBFC1166CBFABAA6ABFF7
:1035C400943E69BF7DD267BF666666BF50FA64BF2A
:1035D400398E63BF222262BF0BB660BFF5495FBF5D
:1035E400DEDD5DBFC7715CBFB0055BBF9A9959BF93
:1035F400832D58BF6CC156BF555555BF3FE953BFC6
:10360400287D52BF111151BFFAA44FBFE4384EBFF9
:10361400CDCC4CBFB6604BBF9FF449BF898848BF2F
:10362400721C47BF5BB045BF444444BF2ED842BF61
:10363400176C41BF000040BFE9933EBFD2273DBF96
:10364400BCBB3BBFA54F3ABF8EE338BF777737BFCC
:10365400610B36BF4A9F34BF333333BF1CC731BFFE
:10366400065B30BFEFEE2EBFD8822DBFC1162CBF34
:10367400ABAA2ABF943E29BF7DD227BF666626BF68
:1036840050FA24BF398E23BF222222BF0BB620BF9B
:10369400F5491FBFDEDD1DBFC7711CBFB0051BBFD1
:1036A4009A9919BF832D18BF6CC116BF555515BF04
:1036B4003FE913BF287D12BF111111BFFAA40FBF38
:1036C400E4380EBFCDCC0CBFB6600BBF9FF409BF6E
:1036D400898808BF721C07BF5BB005BF444404BFA0
:1036E4002ED802BF176C01BF000000BFD227FDBE59
:1036F400A54FFABE7777F7BE4A9FF4BE1CC7F1BE4A
:10370400EFEEEEBEC116ECBE943EE9BE6666E6BEC2
:10371400398EE3BE0BB6E0BEDEDDDDBEB005DBBE3A
:10372400832DD8BE5555D5BE287DD2BEFAA4CFBEB2
:10373400CDCCCCBE9FF4C9BE721CC7BE4444C4BE2B
:10374400176CC1BEE993BEBEBCBBBBBE8EE3B8BEA4
:10375400610BB6BE3333B3BE065BB0BED882ADBE1A
:10376400ABAAAABE7DD2A7BE50FAA4BE2222A2BE94
:10377400F5499FBEC7719CBE9A9999BE6CC196BE0D
:103784003FE993BE111191BEE4388EBEB6608BBE84
:10379400898888BE5BB085BE2ED882BE000080BEFC
:1037A400A54F7ABE4A9F74BEEFEE6EBE943E69BECC
:1037B400398E63BEDEDD5DBE832D58BE287D52BECC
:1037C400CDCC4CBE721C47BE176C41BEBCBB3BBECD
:1037D400610B36BE065B30BEABAA2ABE50FA24BECD
:1037E400F5491FBE9A9919BE3FE913BEE4380EBECF
:1037F400898808BE2ED802BEA54FFABDEFEEEEBDF5
:10380400398EE3BD832DD8BDCDCCCCBD176CC1BDE5
:10381400610BB6BDABAAAABDF5499FBD3FE993BDF7
:10382400898888BDA54F7ABD398E63BDCDCC4CBD8A
:10383400610B36BDF5491FBD898808BD398EE3BCCF
:10384400610BB6BC898888BC610B36BC610BB6BB06
:1038540000000000610BB63B610B363C8988883C54
:10386400610BB63C398EE33C8988083DF5491F3D20
:10387400610B363DCDCC4C3D398E633DA54F7A3D31
:103884008988883D3FE9933DF5499F3DABAAAA3D10
:10389400610BB63D176CC13DCDCCCC3D832DD83DDD
:1038A400398EE33DEFEEEE3DA54FFA3D2ED8023EB4
:1038B4008988083EE4380E3E3FE9133E9A99193E42
:1038C400F5491F3E50FA243EABAA2A3E065B303E21
:1038D400610B363EBCBB3B3E176C413E721C473EFF
:1038E400CDCC4C3E287D523E832D583EDEDD5D3EE0
:1038F400398E633E943E693EEFEE6E3E4A9F743EBF
:10390400A54F7A3E0000803E2ED8823E5BB0853EB5
:103914008988883EB6608B3EE4388E3E1111913E14
:103924003FE9933E6CC1963E9A99993EC7719C3E7D
:10393400F5499F3E2222A23E50FAA43E7DD2A73EE4
:10394400ABAAAA3ED882AD3E065BB03E3333B33E4B
:10395400610BB63E8EE3B83EBCBBBB3EE993BE3EB4
:10396400176CC13E4444C43E721CC73E9FF4C93E1A
:10397400CDCCCC3EFAA4CF3E287DD23E5555D53E83
:10398400832DD83EB005DB3EDEDDDD3E0BB6E03EEA
:10399400398EE33E6666E63E943EE93EC116EC3E51
:1039A400EFEEEE3E1CC7F13E4A9FF43E7777F73EBA
:1039B400A54FFA3ED227FD3E0000003F176C013FA1
:1039C4002ED8023F4444043F5BB0053F721C073FBE
:1039D4008988083F9FF4093FB6600B3FCDCC0C3F6C
:1039E400E4380E3FFAA40F3F1111113F287D123F16
:1039F4003FE9133F5555153F6CC1163F832D183FC2
:103A04009A99193FB0051B3FC7711C3FDEDD1D3F6E
:103A1400F5491F3F0BB6203F2222223F398E233F18
:103A240050FA243F6666263F7DD2273F943E293FC5
:103A3400ABAA2A3FC1162C3FD8822D3FEFEE2E3F72
:103A4400065B303F1CC7313F3333333F4A9F343F1B
:103A5400610B363F7777373F8EE3383FA54F3A3FC8
:103A6400BCBB3B3FD2273D3FE9933E3F0000403F74
:103A7400176C413F2ED8423F4444443F5BB0453F1E
:103A8400721C473F8988483F9FF4493FB6604B3FCB
:103A9400CDCC4C3FE4384E3FFAA44F3F1111513F77
:103AA400287D523F3FE9533F5555553F6CC1563F22
:103AB400832D583F9A99593FB0055B3FC7715C3FCE
:103AC400DEDD5D3FF5495F3F0BB6603F2222623F7A
:103AD400398E633F50FA643F6666663F7DD2673F26
:103AE400943E693FABAA6A3FC1166C3FD8826D3FD2
:103AF400EFEE6E3F065B703F1CC7713F3333733F7D
:103B04004A9F743F610B763F7777773F8EE3783F28
:103B1400A54F7A3FBCBB7B3FD2277D3FE9937E3FD5
:103B2400640000001000000000000000000001001C
:103B3400000000000000000000000200000000007F
:103B4400000000000000030000000000000000006E
:103B54000000FF000000000001B5486801318E46F6
:103B64000047704609380149884701BD650A0010BD
:103B7400B807002000000000280800208809002061
:103B84000000000000000000980900200000000070
:103B94000000000010000000000000000000000011
:103BA400503300004C330000543300005233000003
:103BB4004D5300004D4300005334000043340000D3
:103BC400C93000100000000015310010C131001090
:103BD40000000000000100000000000000000000E0
:103BE400F52D00107D200010F12500101D2D001072
:043BF4003103001089
:04000005100001E9FD
:00000001FF
